:020000040800F2
:1000000000300020F1190008C5180008CD180008BC
:10001000D5180008DD180008E518000800000000E9
:1000200000000000000000000000000021AB0008FC
:10003000ED1800080000000071AD0008D9AD0008FF
:10004000411A0008411A0008411A0008411A000824
:10005000411A0008411A0008411A0008411A000814
:10006000411A0008411A0008411A0008FD1800084A
:1000700011190008411A0008411A0008411A000825
:10008000411A0008411A0008251900084119000802
:1000900055190008691900087D190008411A00085F
:1000A000411A0008411A0008411A0008411A0008C4
:1000B000411A0008411A00080000000091190008C8
:1000C000A51900080000000000000000411A000807
:1000D00000000000411A0008411A0008411A0008F7
:1000E000411A0008411A000800000000000000004A
:1000F0000000000000000000000000000000000000
:1001000000000000000000000000000000000000EF
:100110000000000000000000B9190008411A0008A2
:1001200000000000000000000000000000000000CF
:1001300000000000000000000000000000000000BF
:10014000411A0008411A000800000000411A000886
:10015000411A0008411A0008411A0008411A000813
:10016000411A0008411A00080000000000000000C9
:10017000000000000000000000000000000000007F
:0801800000000000411A000814
:1001900010B5054C237833B9044B13B10448AFF3C1
:1001A00000800123237010BD6400002000000000C7
:1001B0008CB4000808B5034B1BB103490348AFF3E7
:1001C000008008BD00000000680000208CB400081A
:1001D00080B582B000AF7860786804F046FA78683D
:1001E00004F0A8F900BF0837BD4680BD80B483B0D5
:1001F00000AF00237B6017E000233B600EE00F4957
:100200007A681346DB009B1A5B003A6813444FF68A
:10021000FF7221F813203B6801333B603B680D2BD4
:10022000EDD97B6801337B607B68032BE4D900BF89
:1002300000BF0C37BD465DF8047B7047BC02002050
:1002400080B584B000AF03460A46FB711346BB80FD
:100250000023FB600AE01021094804F051F9BB8833
:10026000184608F061F9FB680133FB60FB795B001D
:10027000FA689A42EFDB00BF00BF1037BD4680BD71
:100280000004004880B483B000AF786039607B68B8
:100290001B78DB09DBB203F00103D9B23A681378AB
:1002A00061F3000313707B681B7803F07F03D9B2FE
:1002B0003A68137861F3470313707B685A783B6898
:1002C0005A707B6802331B781B021AB27B680333B7
:1002D0001B781BB213431BB29AB23B685A8000BF13
:1002E0000C37BD465DF8047B704780B584B000AF25
:1002F000F860B9607A60FB689B0E03F00703D9B21F
:100300007A68137861F302031370FB685B0E03F0E5
:100310000103D9B27A68137861F3C3031370FB68E1
:100320001B0E03F00103D9B27A68137861F304134A
:100330001370FB681B0CDAB27B685A70FB681B0AEF
:10034000DAB27B689A70FB68DAB27B68DA70FB68B5
:100350001B0AC3F311027B6891B20020014399800C
:10036000120C02F0030202F003009A7922F0030259
:10037000114602460A439A717B6807330822B9681E
:1003800018460BF01FF800BF1037BD4680BD0000B7
:1003900090B583B000AF34493448FFF773FF4FF690
:1003A000FF73FB80304B1B7803F00103DBB2002BA3
:1003B00011D02D4B1B78C3F34603DBB219462A4BF1
:1003C0005B7818462A4A0B46DB005B1A5B00034445
:1003D00032F81330FB80244B1B7803F00103DBB2AF
:1003E000002B25D1204B1B78C3F34603DBB2194603
:1003F0001D4B5B781C461C4B58881D4A0B46DB0086
:100400005B1A5B002344014622F81310164B1B783D
:10041000C3F34603DBB21946134B5B781846144A04
:100420000B46DB005B1A5B00034432F81330FB80A1
:100430000E4B1A780F4B1A700C4B5A780D4B5A70A2
:10044000FB881B0A9BB2DAB20A4B9A70FB88DAB2BD
:10045000084BDA7004220749074804F035F900BF59
:100460000C37BD4690BD00BF340300203003002090
:10047000BC0200202C030020D001002090B585B0E4
:1004800000AF3C4684E80F007B68C3F311034FF6CE
:10049000D862934219D07B78EF2B04D1BB781846F1
:1004A00000F08AF911E07B78EC2B07D1FB79112B56
:1004B0000BD1BB78184600F059F806E07B78EA2BA0
:1004C00003D1BB78184600F005F800BF1437BD46CD
:1004D00090BD000080B582B000AF0346FB71FA7991
:1004E0001C4B13431A461C4B5A601B4B04229A6048
:1004F000194B0022DA60184B08221A61164B0022B1
:100500001A75164B10221A70144B16225A70134B80
:1005100000229A70114B0422DA70104BFF221A71DC
:100520000E4B80225A710D4BFF229A710B4B002209
:10053000DA710B4B094A08490A4802F022FE0346C9
:10054000002B02D0084B03221A7000BF0837BD46AB
:1005500080BD00BF0031EC1C580300207003002058
:1005600078030020A80100200000002080B58AB098
:1005700000AF0346FB71FB794B33DBB29B0087F87E
:10058000273097F82730844A2A3332F813303B62F9
:1005900097F827300133804A2A3332F81330FB6151
:1005A00097F8273002337C4A2A3332F81330BB6184
:1005B00097F827300333784A2A3332F813307B61B7
:1005C0006423FB74754BFB60FA79754B13431A4631
:1005D000744B5A60734B04229A60724B0022DA60AB
:1005E000704B08221A616F4B00221A756E4B012264
:1005F0001A706D4B22225A706B4AFB7C9370FB6819
:10060000DAB2694BDA70FB681B12DAB2664B1A7108
:10061000FB681B14DAB2644B5A71FB681B0EDAB22A
:10062000614B9A713B6ADAB25F4BDA715F4B5E4A9B
:100630005C495F4802F0A5FD0346002B02D05D4BEC
:1006400003221A70584B02221A703B6A1B12DAB24C
:10065000554B5A703B6A1B14DAB2534B9A703B6A83
:100660001B0EDAB2504BDA70FB69DAB24E4B1A71DC
:10067000FB691B12DAB24C4B5A71FB691B14DAB2DC
:10068000494B9A71FB691B0EDAB2474BDA7100BF16
:10069000464B1B681946464802F043FE0346012BB1
:1006A000F6D0424B404A3F49414802F06AFD0346BA
:1006B000002B02D03F4B03221A703B4B03221A70CF
:1006C000BB69DAB2384B5A70BB691B12DAB2364BCF
:1006D0009A70BB691B14DAB2334BDA70BB691B0E1C
:1006E000DAB2314B1A717B69DAB22F4B5A717B69DE
:1006F0001B12DAB22C4B9A717B691B14DAB22A4BAB
:10070000DA7100BF294B1B681946294802F009FE1F
:100710000346012BF6D0254B234A2249244802F0F8
:1007200030FD0346002B02D0224B03221A701E4BD1
:1007300004221A707B691B0EDAB21B4B5A701A4BDB
:10074000FF229A70184BFF22DA70174BFF221A71A2
:10075000154BFF225A71144BFF229A71124BFF2244
:10076000DA7100BF114B1B681946114802F0D9FD20
:100770000346012BF6D00D4B0B4A0A490C4802F0F8
:1007800000FD0346002B02D00A4B03221A7000BF63
:100790002837BD4680BD00BFBC020020F0490200E2
:1007A0000031EB1C58030020700300207803002068
:1007B000A80100200000002080B582B000AF0346F1
:1007C000FB71FA791C4B13431A461C4B5A601B4BA6
:1007D00004229A60194B0022DA60184B08221A6131
:1007E000164B00221A75164B01221A70144B0F2259
:1007F0005A70134BFF229A70114BFF22DA70104B84
:10080000FF221A710E4BFF225A710D4BFF229A7173
:100810000B4BFF22DA710B4B094A08490A4802F0D8
:10082000B0FC0346002B02D0084B03221A7000BF15
:100830000837BD4680BD00BF0031EF1858030020C7
:100840007003002078030020A80100200000002091
:1008500080B582B000AF0346FB71FA791C4B13439D
:100860001A461C4B5A601B4B04229A60194B0022FB
:10087000DA60184B08221A61164B00221A75164BC3
:10088000FE221A70144B2A225A70134B60229A705F
:10089000114B4922DA70104B00221A710E4B87223D
:1008A0005A710D4B22229A710B4BA022DA710B4B1D
:1008B000094A08490A4802F064FC0346002B02D0AA
:1008C000084B03221A7000BF0837BD4680BD00BF29
:1008D00000FFEE185803002070030020780300206A
:1008E000A80100200000002080B483B000AF786031
:1008F0007B68094A934202D1084B01221A607B6847
:10090000074A934202D1074B02221A6000BF0C37FC
:10091000BD465DF8047B7047800000205003002036
:10092000D00000205403002080B582B000AF786072
:100930007B68044A934201D1FFF72AFD00BF0837C4
:10094000BD4680BDD001002080B582B000AF786088
:100950007B68064A934204D104220549034803F008
:1009600021FF00BF0837BD4680BD00BFD001002079
:100970003003002080B582B000AF78607B68064A03
:10098000934205D1054B02221A707868FFF720FCCC
:1009900000BF0837BD4680BDD00100200000002008
:1009A00080B590B000AF786007F11C0307F1240216
:1009B0000021786802F0D9FC0346002B02D00E4BD0
:1009C00003221A70BB6A07F10C0207F11C011846DA
:1009D000FFF78BFC094B186807F10C01002300227C
:1009E00007F056FE0346002B02D0034B04221A7078
:1009F00000BF4037BD4680BD00000020B802002087
:100A000080B500AF01F01EF800F04AF800F01CFBC2
:100A100000F0F4FA00F082FA00F0C0FA00F09EF85C
:100A200000F048F900F0D4F907F06CFC114A1021ED
:100A3000102007F0A7FD03460F4A13600F4A00215C
:100A40000F4807F0C7FC03460E4A13600E4A002108
:100A50000E4807F0BFFC03460D4A13600D4A002103
:100A60000D4807F0B7FC03460C4A136007F07EFC04
:100A700000BFFDE75CB50008B8020020F0B4000834
:100A8000F5100008AC02002014B500082911000878
:100A9000B002002038B5000835120008B40200206A
:100AA00080B596B000AF07F1300328220021184628
:100AB0000AF004FC07F11C0300221A605A609A60D5
:100AC000DA601A613B4600221A605A609A60DA6066
:100AD0001A615A619A6102233B6301233B6410232C
:100AE0007B640223FB6400233B654FF400237B659A
:100AF00007F13003184605F015FA0346002B01D024
:100B000000F0DCFB0F23FB6100233B6200237B62D0
:100B10000023BB620023FB6207F11C03002118467F
:100B200006F03EFA0346002B01D000F0C7FBA123DC
:100B30003B600023BB604FF480733B610023FB608C
:100B40003B46184606F07EFC0346002B01D000F021
:100B5000B5FB00BF5837BD4680BD000080B58AB0E8
:100B600000AF07F11C0300221A605A609A603B1D17
:100B700000221A605A609A60DA601A615A614C4B1E
:100B80004FF0A0421A604A4B00225A60484B0022A4
:100B90009A60474B01221A61454B00225A76444B1A
:100BA000002283F82020424B0022DA62404B0122CF
:100BB0009A623F4B0022DA603D4B0622DA613C4BE1
:100BC000002283F830203A4B04225A61384B00222D
:100BD0001A76374B00225A63354800F087FF0346E8
:100BE000002B01D000F06AFB0023FB6107F11C031E
:100BF00019462F4801F0C6FE0346002B01D000F035
:100C00005DFB01237B600123BB6000233B6100236C
:100C1000FB6000237B610023BB613B1D1946244818
:100C200001F0F2FB0346002B01D000F047FB02234A
:100C3000BB603B1D19461E4801F0E6FB0346002B36
:100C400001D000F03BFB0323BB603B1D1946184855
:100C500001F0DAFB0346002B01D000F02FFB042348
:100C6000BB603B1D1946124801F0CEFB0346002B2A
:100C700001D000F023FB0523BB603B1D19460C4847
:100C800001F0C2FB0346002B01D000F017FB062346
:100C9000BB603B1D1946064801F0B6FB0346002B1E
:100CA00001D000F00BFB00BF2837BD4680BD00BF60
:100CB0008000002080B586B000AF3B4600221A605D
:100CC0005A609A60DA601A615A613F4B3F4A1A6073
:100CD0003D4B00225A603C4B00229A603A4B012265
:100CE0001A61394B00225A76374B002283F82020B4
:100CF000354B0022DA62344B01229A62324B0022D9
:100D0000DA60314B0522DA612F4B002283F8302064
:100D10002D4B04225A612C4B00221A762A4B0022BA
:100D20005A63294800F0E2FE0346002B01D000F090
:100D3000C5FA01233B6001237B600023FB60002395
:100D4000BB6000233B6100237B613B4619461E4884
:100D500001F05AFB0346002B01D000F0AFFA02234A
:100D60007B603B461946184801F04EFB0346002BBA
:100D700001D000F0A3FA03237B603B4619461248DA
:100D800001F042FB0346002B01D000F097FA042348
:100D90007B603B4619460C4801F036FB0346002BAE
:100DA00001D000F08BFA05237B603B4619460648CC
:100DB00001F02AFB0346002B01D000F07FFA00BFB0
:100DC0001837BD4680BD00BFD00000200001005094
:100DD00080B59EB000AF4E4B4E4A1A604C4B02227B
:100DE0005A604B4B00229A60494B0022DA60484B14
:100DF0004FF4C0221A61464B4FF4E0025A61444B53
:100E000000221A76424B00225A76414B00229A76F3
:100E10003F4B0022DA763E4B00221A773C4B0022F1
:100E20005A773B4801F0A4FF0346002B01D000F0A5
:100E300045FA00237B660023BB660123FB664CF268
:100E400055733B654BF288137B654FF6FF73BB65AB
:100E50004FF40043FB6500233B6601233B670123FE
:100E6000FB6300233B6401237B644EF26573BB622A
:100E70004BF28813FB624FF6FF733B634FF4004362
:100E80007B630023BB630123BB6402237B610023DC
:100E9000BB610123FB614CF27D733B604BF2881315
:100EA0007B604FF6FF73BB604FF40043FB60002391
:100EB0003B6101233B6207F150031946144802F0DD
:100EC00052F80346002B04D0134B03221A7000F093
:100ED000F5F907F1280319460D4802F044F80346D6
:100EE000002B04D00C4B03221A7000F0E7F93B46AC
:100EF0001946074802F037F80346002B04D0064B8A
:100F000003221A7000F0DAF900BF7837BD4680BDC1
:100F1000A8010020006400400000002080B500AF60
:100F20001B4B1C4A1A601A4B1B4A5A60184B202252
:100F30009A60174B0122DA60154B00221A61144B9C
:100F400000225A61124B00229A61114B0022DA6191
:100F50000F4B00221A620E4803F0ECFA0346002BF6
:100F600001D000F0ABF90021094804F043FF03462B
:100F7000002B01D000F0A2F90021054804F085FF04
:100F80000346002B01D000F099F900BF80BD00BFDF
:100F9000D0010020005400402B1D200080B500AF80
:100FA000144B154A1A60134B4FF416425A60114BFA
:100FB00000229A600F4B0022DA600E4B00221A6169
:100FC0000C4B0C225A610B4B00229A61094B0022F8
:100FD000DA61084B00221A62064B00225A62054869
:100FE00006F0F0FD0346002B01D000F067F900BFCA
:100FF00080BD00BF240200200038014080B582B0CF
:1010000000AF104B5B690F4A43F0010353610D4B76
:101010005B6903F001037B607B68002205210B20E4
:1010200002F0F6FD0B2002F00FFE002205210C203D
:1010300002F0EEFD0C2002F007FE00BF0837BD46AF
:1010400080BD00BF0010024080B58AB000AF07F13C
:10105000140300221A605A609A60DA601A61234B06
:101060005B69224A43F400235361204B5B6903F41C
:1010700000233B613B691D4B5B691C4A43F48003C1
:1010800053611A4B5B6903F48003FB60FB68174BE9
:101090005B69164A43F400335361144B5B6903F4F4
:1010A0000033BB60BB68114B5B69104A43F480237B
:1010B00053610E4B5B6903F480237B607B680022E5
:1010C00030210B4803F004FA30237B610123BB611C
:1010D0000023FB6100233B6207F114031946044817
:1010E00002F0B0FF00BF2837BD4680BD00100240AF
:1010F0000004004880B582B000AF7860084B1B78D0
:101100001A46084BA3F87020054B1B78642118463B
:10111000FFF796F84FF47A7007F006FA00BFEDE794
:1011200000000020BC02002080B582B000AF7860D3
:10113000FFF75CF806231A463649374800F068FE88
:101140000346002B01D000F0B9F805231A463349B5
:10115000334800F05DFE0346002B01D000F0AEF8EE
:1011600000BF304B1B68002B03D12F4B1B68002B9B
:10117000F7D02C4B00221A602B4B00221A60254B13
:101180001B889AB2294B1A87224B5B889AB2274B4D
:101190005A87204B9B889AB2244B9A871D4BDB8839
:1011A0009AB2224BDA871B4B1B899AB21F4BA3F8CA
:1011B0004820184B5B899AB21C4BA3F84A20174B66
:1011C0001B889AB2194BA3F84020144B5B889AB243
:1011D000164BA3F84220114B9B889AB2134BA3F8ED
:1011E00044200E4BDB889AB2104BA3F846200B4BE1
:1011F0001B899AB20D4BA3F84C200C4B5B88DBB2D9
:101200001A4620210A4803F063F94FF4967007F05C
:101210008BF98FE738030020800000204403002072
:10122000D00000205003002054030020BC02002006
:101230000004004880B586B000AF786004221249EF
:10124000124803F0AFFA124801F057FF022110488C
:1012500002F0ADF9B520FFF7FBFAB620FFF7F8FA78
:101260000C4B186807F108010023002207F084FAEC
:101270000346002B04D107F108030FCBFFF7FEF85C
:10128000012007F051F9EBE730030020D0010020E6
:10129000A8010020B802002080B582B000AF7860BD
:1012A0007B681B68044A934201D100F0E1FB00BF58
:1012B0000837BD4680BD00BF0010004080B400AFBD
:1012C00072B600BF00BFFDE780B582B000AF114B22
:1012D0009B69104A43F0010393610E4B9B6903F035
:1012E00001037B607B680B4BDB690A4A43F0805348
:1012F000D361084BDB6903F080533B603B680022FD
:101300000F216FF0010002F083FC00BF0837BD46DB
:1013100080BD00BF0010024080B58EB000AF786085
:1013200007F1240300221A605A609A60DA601A6199
:101330007B681B68B3F1A04F76D17B4B1B680133F0
:10134000794A1360784B1B68012B0BD1774B5B6993
:10135000764A43F080535361744B5B6903F08053CA
:101360003B623B6A714B5B69704A43F400335361E3
:101370006E4B5B6903F40033FB61FB696B4B5B698C
:101380006A4A43F480235361684B5B6903F480230A
:10139000BB61BB690F237B620323BB620023FB623B
:1013A00007F1240319464FF0904002F04BFE03234F
:1013B0007B620323BB620023FB6207F1240319460F
:1013C0005B4802F03FFE5B4B5B4A1A60594B0022C0
:1013D0005A60584B00229A60564B8022DA60554B77
:1013E0004FF480721A61534B4FF480625A61514B33
:1013F00000229A614F4B0022DA614E4802F040FC15
:101400000346002B01D0FFF759FF7B68494A9A63D6
:10141000484A7B68536200220521122002F0F8FB43
:10142000122002F011FC7AE07B681B68434A934269
:1014300075D13D4B1B6801333B4A13603A4B1B6827
:10144000012B0BD1394B5B69384A43F08053536110
:10145000364B5B6903F080537B617B69334B5B697F
:10146000324A43F400335361304B5B6903F4003379
:101470003B613B692D4B5B692C4A43F480235361EC
:101480002A4B5B6903F48023FB60FB68F0237B62DB
:101490000323BB620023FB6207F1240319464FF0CC
:1014A000904002F0CFFD04237B620323BB62002344
:1014B000FB6207F1240319461D4802F0C3FD204BCF
:1014C000204A1A601E4B00225A601D4B00229A606F
:1014D0001B4B8022DA601A4B4FF480721A61184B52
:1014E0004FF480625A61164B00229A61144B00221D
:1014F000DA61134802F0C4FB0346002B01D0FFF76A
:10150000DDFE7B680E4A9A630D4A7B6853620022B7
:101510000521122002F07CFB122002F095FB00BF97
:101520003837BD4680BD00BF7C030020001002405C
:101530000004004820010020080002400001005083
:10154000640100201C00024080B58AB000AF7860C2
:1015500007F1140300221A605A609A60DA601A6177
:101560007B681B68284A934249D1284BDB69274A8C
:1015700043F00073D361254BDB6903F000733B61DB
:101580003B69224B5B69214A43F4003353611F4B93
:101590005B6903F40033FB60FB684FF4C0537B616D
:1015A0000223BB610023FB6103233B6209237B62AF
:1015B00007F1140319464FF0904002F043FD00225A
:1015C0000521132002F024FB132002F03DFB002232
:1015D0000521142002F01CFB142002F035FB002230
:1015E0000521152002F014FB152002F02DFB00222E
:1015F0000521162002F00CFB162002F025FB00BF8F
:101600002837BD4680BD00BF006400400010024086
:1016100080B58AB000AF786007F1140300221A6029
:101620005A609A60DA601A617B681B682E4A93429E
:1016300055D12E4B5B692D4A43F4003353612B4B3C
:101640005B6903F400333B613B69284B5B69274AC4
:1016500043F480235361254B5B6903F48023FB60D3
:10166000FB684FF400437B611223BB610023FB61E5
:1016700003233B6204237B6207F1140319464FF0F6
:10168000904002F0DFFC80237B611223BB610023CA
:10169000FB6103233B6204237B6207F114031946B9
:1016A000134802F0CFFC114BDB69104A43F40013DE
:1016B000D3610E4BDB6903F40013BB60BB680022EF
:1016C00005211F2002F0A4FA1F2002F0BDFA00221B
:1016D0000521202002F09CFA202002F0B5FA00BF7C
:1016E0002837BD4680BD00BF0054004000100240B6
:1016F0000004004880B582B000AF78607B681B684A
:101700000E4A934215D10E4BDB690D4A23F40013A8
:10171000D3614FF400414FF0904002F005FE80216C
:10172000084802F001FE1F2002F09CFA202002F07F
:1017300099FA00BF0837BD4680BD00BF0054004085
:10174000001002400004004880B58AB000AF786005
:1017500007F1140300221A605A609A60DA601A6175
:101760007B681B68184A934229D1184B9B69174A1A
:1017700043F480439361154B9B6903F480433B61C1
:101780003B69124B5B69114A43F4003353610F4BC1
:101790005B6903F40033FB60FB684FF4C0637B615B
:1017A0000223BB610023FB6103233B6207237B62AF
:1017B00007F1140319464FF0904002F043FC00BFBC
:1017C0002837BD4680BD00BF0038014000100240F0
:1017D00080B58EB000AF78600023FB620023BB624F
:1017E000334BDB69324A43F01003D361304BDB6982
:1017F00003F01003FB60FB6807F1100207F114030C
:101800001146184605F0ECFD3B6AFB62FB6A002BB3
:1018100003D105F0A1FD786304E005F09DFD0346CA
:101820005B007B637B6B234AA2FB03239B0C013B86
:10183000BB62214B214A1A601F4B40F2E732DA604B
:101840001D4ABB6A53601C4B00221A611A4B0022CE
:101850009A60194B00229A61174805F029FF034648
:1018600087F8333097F83330002B1BD1124805F03E
:1018700081FF034687F8333097F83330002B11D1BE
:10188000362002F0E1F97B680F2B08D80022796836
:10189000362002F0BDF90A4A7B68136002E001239A
:1018A00087F8333097F8333018463837BD4680BD57
:1018B0000010024083DE1B43800300200010004024
:1018C0000800002080B400AF00BFFDE780B400AF87
:1018D00000BFFDE780B400AF00BFFDE780B400AFFC
:1018E00000BFFDE780B400AF00BFFDE780B400AFEC
:1018F00000BFBD465DF8047B7047000080B500AFB7
:10190000024802F0A1FA00BF80BD00BF2001002004
:1019100080B500AF024802F097FA00BF80BD00BF5B
:101920006401002080B500AF034800F04BFB034882
:1019300000F048FB00BF80BD80000020D0000020E8
:1019400080B500AF024801F058FE00BF80BD00BF67
:10195000A801002080B500AF024801F04EFE00BF94
:1019600080BD00BFA801002080B500AF024801F093
:1019700044FE00BF80BD00BFA801002080B500AFBD
:10198000024801F03AFE00BF80BD00BFA801002060
:1019900080B500AF024802F055FF00BF80BD00BF18
:1019A000D001002080B500AF024802F065FF00BF03
:1019B00080BD00BFD001002080B500AF024805F017
:1019C00035FF00BF80BD00BF8003002080B400AFA2
:1019D000064BD3F88830054A43F47003C2F88830C8
:1019E00000BFBD465DF8047B704700BF00ED00E01E
:1019F000DFF834D0FFF7EAFF0C480D490D4A002309
:101A000002E0D458C4500433C4188C42F9D30A4AB3
:101A10000A4C002301E013600432A242FBD309F018
:101A2000ABFCFEF7EDFFFEE70030002000000020D9
:101A300064000020B4B5000864000020F01E0020FF
:101A4000FEE7000080B500AF084B1B68074A43F073
:101A500010031360032002F0D0F80F20FFF7B8FE48
:101A6000FFF732FC0023184680BD00BF0020024073
:101A700080B400AF064B1B781A46064B1B68134414
:101A8000044A136000BFBD465DF8047B704700BF89
:101A90000C000020CC03002080B400AF034B1B6877
:101AA0001846BD465DF8047B704700BFCC0300209C
:101AB00080B483B000AF786000BF0C37BD465DF8DE
:101AC000047B704780B483B000AF786000BF0C37F0
:101AD000BD465DF8047B704780B483B000AF78608A
:101AE00000BF0C37BD465DF8047B704780B59AB0E7
:101AF00000AF7860002387F8673000233B6600233F
:101B0000BB607B68002B01D1012372E17B681B69FC
:101B1000002B7B681B6C03F01003002B76D17B68D5
:101B20001B6C002B52D17B6800225A647B68002218
:101B3000DA647B6800229A647B68002283F83C2088
:101B40007868FFF7E9FB7B681B689B6803F08053AC
:101B5000002B3BD1786801F0A5F8034687F8673081
:101B60007B681B6C03F01003002B2FD197F86730B4
:101B7000002B2BD17B681B6C23F4885323F00203CA
:101B800043F002027B681A647B681B689A687B6872
:101B90001B6822F040529A607B681B689A687B68D9
:101BA0001B6842F080529A60944B1B68944AA2FBD7
:101BB00003239A0C13469B0013445B00BB6002E0B6
:101BC000BB68013BBB60BB68002BF9D17B681B681D
:101BD0009B6803F08053002B07D07B681B689B68D1
:101BE00003F00053B3F1005F10D17B681B6C23F04E
:101BF000120343F010027B681A647B685B6C43F04D
:101C000001027B685A64012387F867307B681B6C8C
:101C100003F01003002B40F0DF8097F86730002BB3
:101C200040F0DA807B681B689B6803F00403002B9C
:101C300040F0D2807B681B6C23F4817343F0020276
:101C40007B681A646F4BFB657B681B68B3F1A04F20
:101C500002D16D4BFB6002E04FF0A043FB607B685C
:101C60001B689B6803F00303012B08D17B681B688A
:101C70001B6803F00103012B01D1012300E00023C5
:101C8000002B1CD1FB68002B10D0FB689B6803F075
:101C90000303012B07D1FB681B6803F00103012B31
:101CA00001D1012300E00023002B08D1FB6D9B68CC
:101CB00023F440327B685B681A43FB6D9A607B6853
:101CC0005B7E5B037A68526B012A02D04FF480522C
:101CD00000E000221A437B68DB681A437B689B683C
:101CE00013433A6E13433B667B6893F82030012B15
:101CF0001BD17B685B7E002B09D17B685B6A013B53
:101D00005A043B6E134343F480333B660DE07B681B
:101D10001B6C23F0220343F020027B681A647B686B
:101D20005B6C43F001027B685A647B689B6A012B01
:101D300007D07B689A6A7B68DB6A13433A6E134369
:101D40003B667B681B689B6803F00C03002B14D177
:101D50007B681B68DB687A68126823F4804323F091
:101D60000203D3607B681B7E9A037B6893F8303054
:101D70005B0013433A6E13433B667B681B68DA686B
:101D8000224B13407A681268396E0B43D3607B682C
:101D90001B69012B0CD17B681B681B6B23F00F01A7
:101DA0007B68DB695A1E7B681B680A431A6307E07D
:101DB0007B681B681A6B7B681B6822F00F021A6332
:101DC0007B6800225A647B681B6C23F0030343F09A
:101DD00001027B681A640AE07B681B6C23F0120323
:101DE00043F010027B681A64012387F8673097F884
:101DF000673018466837BD4680BD00BF040000202C
:101E000083DE1B43000300500001005007C0F0FFB9
:101E100080B586B000AFF860B9607A600023FB75CA
:101E2000FB681B689B6803F00403002B40F0B9803B
:101E3000FB6893F83C30012B01D10223B4E0FB682E
:101E4000012283F83C205A4B9B6803F01F03002BB0
:101E500040F0A080F86800F0C1FE0346FB75FB7DF2
:101E6000002B40F09280FB681B6C23F4706323F01E
:101E7000010343F48072FB681A644D4B9B6803F0C6
:101E80001F03002B04D0FB681B68B3F1A04F15D1D2
:101E9000FB681B6C23F48012FB681A64FB681B68E8
:101EA000DB6803F00073002B27D0FB681B6C23F466
:101EB000405343F48052FB681A641EE0FB681B6CBD
:101EC00043F48012FB681A64FB681B68B3F1A04FEF
:101ED00004D0FB681B68374A93420ED14FF0A043F1
:101EE000DB6803F00073002B07D0FB681B6C23F446
:101EF000405343F48052FB681A64FB681B6C03F484
:101F00008053B3F5805F06D1FB685B6C23F006025B
:101F1000FB685A6402E0FB6800225A64FB680022F6
:101F200083F83C20FB689B6B234A9A62FB689B6B9F
:101F3000224ADA62FB689B6B214A1A63FB681B68C2
:101F40001C221A60FB681B685A68FB681B6842F019
:101F500010025A60FB681B68DA68FB681B6842F075
:101F60000102DA60FB68986BFB681B684033194616
:101F7000BA687B6801F0CBFEFB681B689A68FB6857
:101F80001B6842F004029A600DE0FB68002283F8AF
:101F90003C2008E00123FB75FB68002283F83C200D
:101FA00001E00223FB75FB7D18461837BD4680BD56
:101FB0000003005000010050112B00088B2B00087B
:101FC000A72B000880B588B000AF78600023FB61C4
:101FD0000023BB6100237B617B681B681B683B613E
:101FE0007B681B685B68FB603B6903F00403002BA4
:101FF00004D0FB6803F00403002B09D13B6903F014
:102000000803002B76D0FB6803F00803002B71D087
:102010007B681B6C03F01003002B05D17B681B6CE5
:1020200043F400727B681A64824B9B6803F01F03C1
:10203000002B10D07F4B9B6803F01F03052B0AD0A9
:102040007C4B9B6803F01F03092B04D07B681B6843
:10205000B3F1A04F04D17B681B68DB68BB6103E070
:102060004FF0A043DB68BB617B681B68DB6803F44F
:102070004063002B37D1BB6903F40053002B32D1EE
:102080003B6903F00803002B2DD07B681B689B681D
:1020900003F00403002B1AD17B681B685A687B6825
:1020A0001B6822F00C025A607B681B6C23F4807260
:1020B0007B681A647B681B6C03F48053002B12D17D
:1020C0007B681B6C43F001027B681A640BE07B6841
:1020D0001B6C43F010027B681A647B685B6C43F0F6
:1020E00001027B685A647868FEF7FEFB7B681B6818
:1020F0000C221A603B6903F02003002B04D0FB681C
:1021000003F02003002B0BD13B6903F04003002BAD
:1021100000F0A580FB6803F04003002B00F09F80D7
:102120007B681B6C43F400527B681A64414B9B68CC
:1021300003F01F03002B10D03E4B9B6803F01F03DE
:10214000052B0AD03B4B9B6803F01F03092B04D0DF
:102150007B681B68B3F1A04F04D17B681B68DB6808
:10216000BB6103E04FF0A043DB68BB617B681B6889
:10217000DB6C03F0C003002B6AD1BB6903F0007372
:10218000002B0BD07B681B68DB6803F44063002BDB
:102190005ED1BB6903F40053002B59D13B6903F0B6
:1021A0004003002B54D0234B9B6803F01F03002BEC
:1021B00010D0204B9B6803F01F03062B0AD01D4B49
:1021C0009B6803F01F03072B04D07B681B68B3F1E7
:1021D000A04F04D17B681B68DB687B6103E04FF094
:1021E000A043DB687B617B6903F40013002B2FD1D4
:1021F0007B681B689B6803F00803002B1CD17B687D
:102200001B685A687B681B6822F060025A607B6812
:102210001B6C23F480527B681A647B681B6C03F48C
:102220008073002B14D17B681B6C43F001027B6828
:102230001A640DE0000300507B681B6C43F0100231
:102240007B681A647B685B6C43F001027B685A64AC
:10225000786800F0B1F87B681B6860221A603B69FF
:1022600003F08003002B11D0FB6803F08003002BE8
:102270000CD07B681B6C43F480327B681A647868EE
:10228000FFF720FC7B681B6880221A603B6903F41F
:102290008073002B12D0FB6803F48073002B0DD0E9
:1022A0007B681B6C43F400327B681A64786800F02A
:1022B00097F87B681B684FF480721A603B6903F4DF
:1022C0000073002B12D0FB6803F40073002B0DD0B9
:1022D0007B681B6C43F480227B681A64786800F08A
:1022E00089F87B681B684FF400721A603B6903F041
:1022F0001003002B3BD0FB6803F01003002B36D0FB
:102300007B685B6B012B02D10123FB6119E0294B38
:10231000BB60BB689B6803F01F03002B09D17B687F
:102320001B68DB6803F00103012B0AD10123FB6169
:1023300007E0BB689B6803F44043002B01D00123F6
:10234000FB61FB69012B0ED17B681B6C43F480623F
:102350007B681A647B685B6C43F002027B685A649A
:102360007868FFF7B9FB7B681B6810221A603B692D
:1023700003F48063002B18D0FB6803F48063002B08
:1023800013D07B681B6C43F480427B681A647B68C3
:102390005B6C43F008027B685A647B681B684FF4EF
:1023A00080621A60786800F011F800BF2037BD46DF
:1023B00080BD00BF0003005080B483B000AF7860E0
:1023C00000BF0C37BD465DF8047B704780B483B016
:1023D00000AF786000BF0C37BD465DF8047B7047E6
:1023E00080B483B000AF786000BF0C37BD465DF8A5
:1023F000047B704780B483B000AF786000BF0C37B7
:10240000BD465DF8047B704780B49BB000AF786038
:102410003960002387F867300023BB607B6893F83E
:102420003C30012B01D10223A1E27B68012283F819
:102430003C207B681B689B6803F00403002B40F082
:1024400085823B685B68042B1CD87B681B68196B12
:102450003B685A6813465B0013445B001A461F230F
:102460009340DB4319403B6818683B685A68134641
:102470005B0013445B0000FA03F27B681B680A43AD
:102480001A6363E03B685B68092B1ED87B681B6896
:10249000596B3B685A6813465B0013445B001E3B54
:1024A0001F2202FA03F3DB4319403B6818683B68BC
:1024B0005A6813465B0013445B001E3B00FA03F2AC
:1024C0007B681B680A435A6340E03B685B680E2BDD
:1024D0001ED87B681B68996B3B685A6813465B0083
:1024E00013445B003C3B1F2202FA03F3DB43194019
:1024F0003B6818683B685A6813465B0013445B00EE
:102500003C3B00FA03F27B681B680A439A631DE0B8
:102510007B681B68D96B3B685A6813465B001344A1
:102520005B005A3B1F2202FA03F3DB4319403B686E
:1025300018683B685A6813465B0013445B005A3BBB
:1025400000FA03F27B681B680A43DA637B681B6846
:102550009B6803F00C03002B40F0E5803B681B6890
:10256000092B1CD97B681B6899693B681A6813465C
:102570005B0013441E3B072202FA03F3DB431940BE
:102580003B6898683B681A6813465B0013441E3B1F
:1025900000FA03F27B681B680A439A6119E07B68C2
:1025A0001B6859693B681A6813465B00134407228D
:1025B00002FA03F3DB4319403B6898683B681A68EA
:1025C00013465B00134400FA03F27B681B680A435E
:1025D0005A613B685A697B681B68DB68DB0803F05B
:1025E00003035B0002FA03F33B663B681B69013B94
:1025F000032B4FD801A252F823F000BF0D2600088C
:102600002F26000851260008732600087B681B68E7
:102610001A6E9C4B13403A68126891063A6E0A4350
:102620001A437B681B6842F000421A667BE07B68B5
:102630001B685A6E934B13403A68126891063A6EC3
:102640000A431A437B681B6842F000425A666AE0FC
:102650007B681B689A6E8B4B13403A681268910630
:102660003A6E0A431A437B681B6842F000429A663E
:1026700059E07B681B68DA6E824B13403A68126837
:1026800091063A6E0A431A437B681B6842F0004287
:10269000DA6648E07B681B681B6E03F0F8423B6813
:1026A0001B689B069A4207D17B681B681A6E7B6881
:1026B0001B6822F000421A667B681B685B6E03F0A1
:1026C000F8423B681B689B069A4207D17B681B68EF
:1026D0005A6E7B681B6822F000425A667B681B6852
:1026E0009B6E03F0F8423B681B689B069A4207D139
:1026F0007B681B689A6E7B681B6822F000429A66B2
:102700007B681B68DB6E03F0F8423B681B689B0626
:102710009A4207D17B681B68DA6E7B681B6822F0DF
:102720000042DA6600BF7B681B689B6803F0030306
:10273000012B08D17B681B681B6803F00103012B88
:1027400001D1012300E00023002B40F00A813B6807
:10275000DB68012B0FD07B681B68D3F8B0103B6897
:102760001B68012202FA03F3DA437B681B680A4004
:10277000C3F8B02049E07B681B68D3F8B0103B6811
:102780001B6801229A407B681B680A43C3F8B0208B
:102790003B681B68092B1CD97B681B6899693B68DF
:1027A0001A6813465B0013441B3B072202FA03F32B
:1027B000DB4319403B6898683B681A6813465B0026
:1027C00013441B3B00FA03F27B681B680A439A61BF
:1027D0001BE07B681B6859693B681B685A1C1346E1
:1027E0005B001344072202FA03F3DB4319403B6802
:1027F00098683B681B685A1C13465B00134400FA38
:1028000003F27B681B680A435A611F4BFB653B68F8
:102810001B68102B05D1FB6D9B6803F40003002B94
:1028200015D03B681B68112B05D1FB6D9B6803F02D
:102830008073002B0BD03B681B68122B40F09180FB
:10284000FB6D9B6803F48003002B40F08A807B685B
:102850001B68B3F1A04F02D10C4BFB6002E04FF0BC
:10286000A043FB607B681B689B6803F00303012B9C
:102870000ED17B681B681B6803F00103012B07D195
:10288000012306E000F0FF83000300500001005028
:102890000023002B50D1FB68002B10D0FB689B68F5
:1028A00003F00303012B07D1FB681B6803F001034E
:1028B000012B01D1012300E00023002B3CD13B6818
:1028C0001B68102B1DD17B681B68B3F1A04F18D17A
:1028D000FB6D9B6843F40002FB6D9A60274B1B68FD
:1028E000274AA2FB03239A0C13469B0013445B0068
:1028F000BB6002E0BB68013BBB60BB68002BF9D149
:102900002EE03B681B68112B0BD17B681B68B3F171
:10291000A04F06D1FB6D9B6843F08072FB6D9A60FF
:102920001EE03B681B68122B1AD1FB6D9B6843F4B9
:102930008002FB6D9A6013E07B681B6C43F0200201
:102940007B681A64012387F867300AE07B681B6C98
:1029500043F020027B681A64012387F8673000E0A7
:1029600000BF7B68002283F83C2097F86730184648
:102970006C37BD465DF8047B704700BF0400002043
:1029800083DE1B4380B499B000AF786039600023C8
:1029900087F85F307B681B68B3F1A04F02D15A4BB8
:1029A000BB6002E04FF0A043BB60BB68002B01D1CD
:1029B0000123A2E07B6893F83C30012B01D1022374
:1029C0009BE07B68012283F83C207B681B689B6846
:1029D00003F00403002B7FD1BB689B6803F0040362
:1029E000002B79D1494BBB653B681B68002B40D05D
:1029F000BB6D9B6823F460423B6859687B6893F821
:102A000030305B030B431A43BB6D9A607B681B68D5
:102A10009B6803F00303012B08D17B681B681B68CC
:102A200003F00103012B01D1012300E00023002B5F
:102A30005CD1BB689B6803F00303012B07D1BB6823
:102A40001B6803F00103012B01D1012300E00023E7
:102A5000002B4BD1BB6D9B6823F4716323F00F03F4
:102A60003A6811683A6892680A431A43BB6D9A60E3
:102A70003CE0BB6D9B6823F46042BB6D9A607B6851
:102A80001B689B6803F00303012B08D17B681B685C
:102A90001B6803F00103012B01D1012300E0002397
:102AA000002B23D1BB689B6803F00303012B07D1E4
:102AB000BB681B6803F00103012B01D1012300E077
:102AC0000023002B12D1BB6D9B6823F4716323F0AC
:102AD0000F03BA6D936009E07B681B6C43F0200222
:102AE0007B681A64012387F85F3000E000BF7B68D1
:102AF000002283F83C2097F85F3018466437BD46C3
:102B00005DF8047B704700BF0001005000030050D7
:102B100080B584B000AF78607B685B6AFB60FB685F
:102B20001B6C03F05003002B26D1FB681B6C43F495
:102B30000072FB681A64FB681B68DB6803F440637F
:102B4000002B15D1FB685B7E002B11D1FB681B6C41
:102B500023F48072FB681A64FB681B6C03F48053D7
:102B6000002B05D1FB681B6C43F00102FB681A6463
:102B7000F868FDF7B9FE04E0FB689B6B1B6B786897
:102B8000984700BF1037BD4680BD80B584B000AF08
:102B900078607B685B6AFB60F868FEF789FF00BFBE
:102BA0001037BD4680BD80B584B000AF78607B68CB
:102BB0005B6AFB60FB681B6C43F04002FB681A64B5
:102BC000FB685B6C43F00402FB685A64F868FEF72C
:102BD00083FF00BF1037BD4680BD000080B584B0C4
:102BE00000AF78600023FB607B681B689B6803F084
:102BF0000303012B08D17B681B681B6803F00103EA
:102C0000012B01D1012300E00023002B43D17B687D
:102C10001B689A68224B1340002B0DD07B681B6CFD
:102C200043F010027B681A647B685B6C43F001021E
:102C30007B685A6401232FE07B681B689A687B6875
:102C40001B6842F001029A60FEF726FFF8601BE065
:102C5000FEF722FF0246FB68D31A022B14D97B68C9
:102C60001B681B6803F00103012B0DD07B681B6CF4
:102C700043F010027B681A647B685B6C43F00102CE
:102C80007B685A64012307E07B681B681B6803F0BC
:102C90000103012BDCD1002318461037BD4680BD4F
:102CA0003F00008080B584B000AF78600023FB60F7
:102CB0007B681B689B6803F00303012B08D17B68CA
:102CC0001B681B6803F00103012B01D1012300E005
:102CD0000023002B47D07B681B689B6803F00D0323
:102CE000012B0FD17B681B689A687B681B6842F0D8
:102CF00002029A607B681B6803221A60FEF7CCFE12
:102D0000F86029E07B681B6C43F010027B681A6452
:102D10007B685B6C43F001027B685A64012323E00B
:102D2000FEF7BAFE0246FB68D31A022B14D97B6861
:102D30001B689B6803F00103012B0DD17B681B6CA2
:102D400043F010027B681A647B685B6C43F00102FD
:102D50007B685A64012307E07B681B689B6803F06B
:102D60000103012BDCD0002318461037BD4680BD7F
:102D700080B584B000AF78607B68002B01D101235F
:102D8000EDE07B6893F82030DBB2002B02D178684D
:102D9000FEF7DAFB7B681B681A687B681B6842F0E9
:102DA00001021A60FEF778FEF86012E0FEF774FE8A
:102DB0000246FB68D31A0A2B0BD97B685B6A43F483
:102DC00000327B685A627B68052283F82020012349
:102DD000C5E07B681B685B6803F00103002BE5D04E
:102DE0007B681B681A687B681B6822F002021A6005
:102DF000FEF752FEF86012E0FEF74EFE0246FB6858
:102E0000D31A0A2B0BD97B685B6A43F400327B68C8
:102E10005A627B68052283F8202001239FE07B68AB
:102E20001B685B6803F00203002BE5D17B681B7E07
:102E3000012B08D17B681B681A687B681B6842F00D
:102E400080021A6007E07B681B681A687B681B6851
:102E500022F080021A607B685B7E012B08D17B68C0
:102E60001B681A687B681B6842F040021A6007E022
:102E70007B681B681A687B681B6822F040021A6036
:102E80007B689B7E012B08D17B681B681A687B6876
:102E90001B6842F020021A6007E07B681B681A6812
:102EA0007B681B6822F020021A607B68DB7E012BA6
:102EB00008D17B681B681A687B681B6822F01002C7
:102EC0001A6007E07B681B681A687B681B6842F021
:102ED00010021A607B681B7F012B08D17B681B687E
:102EE0001A687B681B6842F008021A6007E07B687A
:102EF0001B681A687B681B6822F008021A607B68EE
:102F00005B7F012B08D17B681B681A687B681B6894
:102F100042F004021A6007E07B681B681A687B684D
:102F20001B6822F004021A607B689A687B68DB6881
:102F30001A437B681B691A437B685B6942EA030199
:102F40007B685B685A1E7B681B680A43DA617B6892
:102F500000225A627B68012283F820200023184651
:102F60001037BD4680BD80B487B000AF786039604F
:102F70007B681B687B617B6893F82030FB74FB7C6B
:102F8000012B03D0FB7C022B40F0AA807B69D3F895
:102F9000003243F001027B69C3F800223B685B69A1
:102FA00003F01F03012202FA03F3FB607B69D3F8ED
:102FB0001C22FB68DB431A407B69C3F81C223B6878
:102FC000DB69002B23D17B69D3F80C22FB68DB4340
:102FD0001A407B69C3F80C223B68DB6819043B6824
:102FE0005B689BB23A68526919437B69483243F87F
:102FF00032103B689B6819043B681B689AB23B68B7
:103000005B690A4379694833DB000B445A603B68CB
:10301000DB69012B22D17B69D3F80C22FB681A43B0
:103020007B69C3F80C223B681B6819043B685B682A
:103030009BB23A68526919437B69483243F83210AF
:103040003B689B6819043B68DB689AB23B685B6924
:103050000A4379694833DB000B445A603B689B693B
:10306000002B09D17B69D3F80422FB68DB431A40AB
:103070007B69C3F8042207E07B69D3F80422FB686C
:103080001A437B69C3F804223B681B69002B09D1F2
:103090007B69D3F81422FB68DB431A407B69C3F8D1
:1030A000142207E07B69D3F81422FB681A437B697A
:1030B000C3F814223B681B6A012B07D17B69D3F844
:1030C0001C22FB681A437B69C3F81C227B69D3F876
:1030D000003223F001027B69C3F80022002306E0DE
:1030E0007B685B6A43F480227B685A62012318463E
:1030F0001C37BD465DF8047B704780B584B000AFD7
:1031000078607B6893F82030DBB2012B2ED17B688E
:10311000022283F820207B681B681A687B681B6882
:1031200022F001021A60FEF7B7FCF86012E0FEF729
:10313000B3FC0246FB68D31A0A2B0BD97B685B6A87
:1031400043F400327B685A627B68052283F82020B2
:10315000012312E07B681B685B6803F00103002B0E
:10316000E5D17B6800225A62002306E07B685B6A37
:1031700043F400227B685A62012318461037BD468B
:1031800080BD80B489B000AFF860B9607A603B6000
:10319000FB6893F82030FB77FB681B689B68BB617A
:1031A000FB7F012B03D0FB7F022B40F0AD80BB697E
:1031B00003F08063002B0AD1BB6903F00063002B8E
:1031C00005D1BB6903F08053002B00F09580BB69EB
:1031D0001B0E03F003037B6101227B699A403B686D
:1031E0001A60BB689B68002B0DD1BB681B685A0531
:1031F000BB68DB68F96809681A437B6918331B01EF
:103200000B441A600FE0BB685B68DA00BB689B6820
:103210001A43BB68DB68F96809681A437B6918338D
:103220001B010B441A60FB681968BB681A697B694B
:1032300018331B010B4404331A60BB681B7D012B40
:1032400011D1FB681A687B6918331B0113440433DE
:103250001B68FA68116843F480727B6918331B019C
:103260000B4404331A607B6807331B781A067B68AB
:1032700006331B781B041A437B6805331B781B023B
:1032800013437A68043212781046FA68116843EAE8
:1032900000027B691B010B4403F5C6731A607B684F
:1032A00003331B781A067B6802331B781B041A430E
:1032B0007B6801331B781B0213437A68127810462F
:1032C000FA68116843EA00027B691B010B4403F5AD
:1032D000C4731A60FB681A687B6918331B011344B6
:1032E0001B68FA68116843F001027B6918331B01FF
:1032F0000B441A6000230EE0FB685B6A43F4001283
:10330000FB685A62012306E0FB685B6A43F4802293
:10331000FB685A62012318462437BD465DF8047BDA
:10332000704780B485B000AF786039600023FB60DF
:103330007B6893F82030FB72FB7A012B02D0FB7A7A
:10334000022B0BD17B681B689A683B689B061A406E
:103350003B689B069A4201D00123FB60FB6818463C
:103360001437BD465DF8047B704780B487B000AF6A
:10337000F860B9607A603B60FB6893F82030FB75B9
:10338000FB7D012B03D0FB7D022B40F00381BB684A
:10339000002B0ED1FB681B68DB6803F00303002BD6
:1033A00016D1FB685B6A43F40012FB685A62012382
:1033B000F7E0FB681B681B6903F00303002B07D1D0
:1033C000FB685B6A43F40012FB685A620123E8E081
:1033D000FB681A68BB681B331B0113441B6803F0AE
:1033E00004027B689A607B689B68002B0CD1FB68A9
:1033F0001A68BB681B331B0113441B685B0DC3F3C6
:103400000A027B681A600BE0FB681A68BB681B3312
:103410001B0113441B68DB0823F060427B685A6081
:10342000FB681A68BB681B331B0113441B6803F05D
:1034300002027B68DA60FB681A68BB681B331B01F9
:10344000134404331B6803F00803002B03D07B688C
:1034500008221A610BE0FB681A68BB681B331B016A
:10346000134404331B6803F00F027B681A61FB6886
:103470001A68BB681B331B01134404331B681B0A07
:10348000DAB27B689A61FB681A68BB681B331B0160
:10349000134404331B681B0C9AB27B685A61FB68A7
:1034A0001A68BB681B01134403F5DC731B68DAB2AE
:1034B0003B681A70FB681A68BB681B01134403F56C
:1034C000DC731B681A0A3B680133D2B21A70FB68BE
:1034D0001A68BB681B01134403F5DC731B681A0CE4
:1034E0003B680233D2B21A70FB681A68BB681B01D2
:1034F000134403F5DC731B681A0E3B680333D2B226
:103500001A70FB681A68BB681B01134403F5DE736D
:103510001A683B680433D2B21A70FB681A68BB6839
:103520001B01134403F5DE731B681A0A3B6805335D
:10353000D2B21A70FB681A68BB681B01134403F50A
:10354000DE731B681A0C3B680633D2B21A70FB6834
:103550001A68BB681B01134403F5DE731B681A0E5F
:103560003B680733D2B21A70BB68002B08D1FB68E6
:103570001B68DA68FB681B6842F02002DA6007E02B
:10358000FB681B681A69FB681B6842F020021A611D
:10359000002306E0FB685B6A43F48022FB685A6202
:1035A000012318461C37BD465DF8047B704780B484
:1035B00085B000AF786039607B6893F82030FB738A
:1035C000FB7B012B02D0FB7B022B09D17B681B68A4
:1035D00059697B681B683A680A435A61002306E010
:1035E0007B685B6A43F480227B685A620123184639
:1035F0001437BD465DF8047B704780B58AB000AFD4
:10360000786000237B627B681B685B693B627B6838
:103610001B685B68FB617B681B689B68BB617B68A0
:103620001B68DB687B617B681B681B693B617B688F
:103630001B689B69FB603B6A03F00103002B7CD095
:10364000BB6903F00103002B23D07B681B680122B8
:103650009A60BB6903F00203002B03D0786800F086
:1036600083F916E0BB6903F00403002B04D07B6AE6
:1036700043F400637B620CE0BB6903F00803002B9A
:1036800004D07B6A43F480537B6202E0786800F0E8
:1036900089F9BB6903F48073002B24D07B681B6815
:1036A0004FF480729A60BB6903F40073002B03D05F
:1036B000786800F063F916E0BB6903F48063002BBF
:1036C00004D07B6A43F400537B620CE0BB6903F4D3
:1036D0000063002B04D07B6A43F480437B6202E0EA
:1036E000786800F069F9BB6903F48033002B24D0BB
:1036F0007B681B684FF480329A60BB6903F4003327
:10370000002B03D0786800F043F916E0BB6903F49E
:103710008023002B04D07B6A43F400437B620CE0DF
:10372000BB6903F40023002B04D07B6A43F480338D
:103730007B6202E0786800F049F93B6A03F0080315
:10374000002B0CD07B6903F01003002B07D07B6AA1
:1037500043F400737B627B681B681022DA603B6A6B
:1037600003F00403002B0BD07B6903F00803002B4C
:1037700006D07B681B680822DA60786800F030F9B0
:103780003B6A03F00203002B09D07B681B68DB68EF
:1037900003F00303002B02D07868FDF701F93B6AC0
:1037A00003F04003002B0CD03B6903F01003002B07
:1037B00007D07B6A43F480637B627B681B681022BE
:1037C0001A613B6A03F02003002B0BD03B6903F026
:1037D0000803002B06D07B681B6808221A617868F2
:1037E00000F012F93B6A03F01003002B09D07B684C
:1037F0001B681B6903F00303002B02D0786800F0FC
:10380000F9F83B6A03F40033002B0BD0FB6903F09B
:103810001003002B06D07B681B6810225A60786862
:1038200000F0FCF83B6A03F48033002B0BD0FB69FB
:1038300003F00803002B06D07B681B6808225A603F
:10384000786800F0F5F83B6A03F40043002B7BD066
:10385000FB6903F00403002B72D03B6A03F480730E
:10386000002B08D0FB6803F00103002B03D07B6A18
:1038700043F001037B623B6A03F40073002B08D022
:10388000FB6803F00203002B03D07B6A43F00203C2
:103890007B623B6A03F48063002B08D0FB6803F073
:1038A0000403002B03D07B6A43F004037B623B6A72
:1038B00003F40063002B43D0FB6803F07003002B7C
:1038C0003ED0FB6803F07003602B2BD0602B2ED80A
:1038D000502B22D0502B2AD8402B19D0402B26D841
:1038E000302B10D0302B22D8102B02D0202B05D01B
:1038F0001DE07B6A43F008037B6219E07B6A43F0BA
:1039000010037B6214E07B6A43F020037B620FE0CC
:103910007B6A43F040037B620AE07B6A43F08003EA
:103920007B6205E07B6A43F480737B6200E000BF4A
:103930007B681B689A697B681B6822F070029A6139
:103940007B681B6804225A607B6A002B08D07B6866
:103950005A6A7B6A1A437B685A62786800F072F888
:1039600000BF2837BD4680BD80B483B000AF78600B
:1039700000BF0C37BD465DF8047B704780B483B050
:1039800000AF786000BF0C37BD465DF8047B704720
:1039900080B483B000AF786000BF0C37BD465DF8DF
:1039A000047B704780B483B000AF786000BF0C37F1
:1039B000BD465DF8047B704780B483B000AF78608B
:1039C00000BF0C37BD465DF8047B704780B483B000
:1039D00000AF786000BF0C37BD465DF8047B7047D0
:1039E00080B483B000AF786000BF0C37BD465DF88F
:1039F000047B704780B483B000AF786000BF0C37A1
:103A0000BD465DF8047B704780B483B000AF78603A
:103A100000BF0C37BD465DF8047B704780B483B0AF
:103A200000AF786000BF0C37BD465DF8047B70477F
:103A300080B483B000AF786000BF0C37BD465DF83E
:103A4000047B704780B483B000AF786000BF0C3750
:103A5000BD465DF8047B704780B485B000AF7860E8
:103A60007B6803F00703FB600C4BDB68BB60BA6844
:103A70004FF6FF031340BB60FB681A02BB68134399
:103A800043F0BF6343F40033BB60044ABB68D360B8
:103A900000BF1437BD465DF8047B704700ED00E0C1
:103AA00080B400AF044BDB681B0A03F00703184621
:103AB000BD465DF8047B704700ED00E080B483B044
:103AC00000AF0346FB7197F90730002B0BDBFB7946
:103AD00003F01F02074997F907305B09012000FA3C
:103AE00002F241F8232000BF0C37BD465DF8047B8D
:103AF000704700BF00E100E080B483B000AF034630
:103B0000FB7197F90730002B12DBFB7903F01F02E2
:103B10000A4997F907305B09012000FA02F22033C5
:103B200041F82320BFF34F8F00BFBFF36F8F00BF5B
:103B300000BF0C37BD465DF8047B704700E100E034
:103B400080B483B000AF03463960FB7197F907304A
:103B5000002B0ADB3B68DAB20C4997F907301201F7
:103B6000D2B20B4483F800230AE03B68DAB208497A
:103B7000FB7903F00F03043B1201D2B20B441A7617
:103B800000BF0C37BD465DF8047B704700E100E0E4
:103B900000ED00E080B489B000AFF860B9607A60F1
:103BA000FB6803F00703FB61FB69C3F10703042B08
:103BB00028BF0423BB61FB690433062B02D9FB69D0
:103BC000033B00E000237B614FF0FF32BB6902FA48
:103BD00003F3DA43BB681A407B699A404FF0FF3128
:103BE0007B6901FA03F3D9437B680B401343184602
:103BF0002437BD465DF8047B704780B582B000AFC6
:103C000078607868FFF728FF00BF0837BD4680BDA1
:103C100080B586B000AF0346B9607A60FB730023BD
:103C20007B61FFF73DFF78617A68B9687869FFF7D3
:103C3000B1FF024697F90F3011461846FFF780FF93
:103C400000BF1837BD4680BD80B582B000AF0346C7
:103C5000FB7197F907301846FFF730FF00BF0837B0
:103C6000BD4680BD80B582B000AF0346FB7197F9B9
:103C700007301846FFF740FF00BF0837BD4680BD3C
:103C800080B584B000AF78600023FB607B68002BB8
:103C900001D1012337E07B68022283F821207B6871
:103CA0001B681B68FB60FB6823F47F5323F0300321
:103CB000FB607B685A687B689B681A437B68DB689B
:103CC0001A437B681B691A437B685B691A437B68EC
:103CD0009B691A437B68DB691343FA681343FB60F3
:103CE0007B681B68FA681A60786800F08BF97B685B
:103CF00000229A637B68012283F821207B680022DE
:103D000083F82020002318461037BD4680BD80B5BB
:103D100086B000AFF860B9607A603B600023FB7545
:103D2000FB6893F82030012B01D102234AE0FB68A5
:103D3000012283F82020FB6893F82130012B3AD12F
:103D4000FB68022283F82120FB6800229A63FB684B
:103D50001B681A68FB681B6822F001021A603B6846
:103D60007A68B968F86800F01FF9FB68DB6A002B15
:103D700008D0FB681B681A68FB681B6842F00E02DB
:103D80001A600FE0FB681B681A68FB681B6842F04A
:103D90000A021A60FB681B681A68FB681B6822F03D
:103DA00004021A60FB681B681A68FB681B6842F013
:103DB00001021A6005E0FB68002283F8202002233C
:103DC000FB75FB7D18461837BD4680BD80B584B0B5
:103DD00000AF78600023FB737B6893F82130022BDF
:103DE00005D07B6804229A630123FB7327E07B687C
:103DF0001B681A687B681B6822F00E021A607B68D9
:103E00001B681A687B681B6822F001021A607B68D5
:103E10001A6C7B68DB6B012101FA02F25A607B6845
:103E2000012283F821207B68002283F820207B6810
:103E30005B6B002B03D07B685B6B78689847FB7BE0
:103E400018461037BD4680BD80B584B000AF78609D
:103E50007B68DB6B1B68FB607B681B681B68BB6057
:103E60007B681B6C04229A40FB681340002B24D013
:103E7000BB6803F00403002B1FD07B681B681B6822
:103E800003F02003002B07D17B681B681A687B684E
:103E90001B6822F004021A607B681A6C7B68DB6B7B
:103EA000042101FA02F25A607B68DB6A002B6AD0B7
:103EB0007B68DB6A7868984765E07B681B6C022248
:103EC0009A40FB681340002B2CD0BB6803F0020320
:103ED000002B27D07B681B681B6803F02003002B96
:103EE0000BD17B681B681A687B681B6822F00A028A
:103EF0001A607B68012283F821207B681A6C7B683A
:103F0000DB6B022101FA02F25A607B68002283F81F
:103F100020207B689B6A002B35D07B689B6A786881
:103F2000984730E07B681B6C08229A40FB6813407E
:103F3000002B28D0BB6803F00803002B23D07B683C
:103F40001B681A687B681B6822F00E021A607B6887
:103F50001A6C7B68DB6B012101FA02F25A607B6804
:103F600001229A637B68012283F821207B6800226A
:103F700083F820207B681B6B002B04D07B681B6BB5
:103F800078689847FFE700BF1037BD4680BD80B412
:103F900083B000AF78607B6893F8213018460C3707
:103FA000BD465DF8047B704780B485B000AFF86013
:103FB000B9607A603B60FB681A6CFB68DB6B0121BF
:103FC00001FA02F25A60FB681B683A685A60FB68A3
:103FD0005B68102B08D1FB681B687A689A60FB68E5
:103FE0001B68BA68DA6007E0FB681B68BA689A6009
:103FF000FB681B687A68DA6000BF1437BD465DF85D
:10400000047B704780B483B000AF78607B681B6826
:104010001A46094B1344094AA2FB03231B099A00C1
:104020007B681A647B68064ADA6300BF0C37BD46BA
:104030005DF8047B704700BFF8FFFDBFCDCCCCCC52
:104040000000024080B487B000AF78603960002380
:104050007B614EE13B681A6801217B6901FA03F339
:104060001340FB60FB68002B00F040813B685B68FD
:1040700003F00303012B05D03B685B6803F00303E7
:10408000022B30D17B689B683B617B695B0003221C
:1040900002FA03F3DB433A6913403B613B68DA6899
:1040A0007B695B0002FA03F33A6913433B617B6867
:1040B0003A699A607B685B683B6101227B6902FA1E
:1040C00003F3DB433A6913403B613B685B681B09C0
:1040D00003F001027B6902FA03F33A6913433B617F
:1040E0007B683A695A603B685B6803F00303032B03
:1040F00017D07B68DB683B617B695B00032202FAB7
:1041000003F3DB433A6913403B613B689A687B6980
:104110005B0002FA03F33A6913433B617B683A6937
:10412000DA603B685B6803F00303022B23D17B69F1
:10413000DA087B68083253F822303B617B6903F070
:1041400007039B000F2202FA03F3DB433A69134093
:104150003B613B681A697B6903F007039B0002FA25
:1041600003F33A6913433B617B69DA087B680832E1
:10417000396943F822107B681B683B617B695B00EF
:10418000032202FA03F3DB433A6913403B613B68C5
:104190005B6803F003027B695B0002FA03F33A6990
:1041A00013433B617B683A691A603B685B6803F4C0
:1041B0004033002B00F09A80554B9B69544A43F0E2
:1041C00001039361524B9B6903F00103BB60BB6821
:1041D000504A7B699B08023352F823303B617B696C
:1041E00003F003039B000F2202FA03F3DB433A6957
:1041F00013403B617B68B3F1904F13D07B68464A14
:1042000093420DD07B68454A934207D07B68444A6D
:10421000934201D1032306E0052304E0022302E0D8
:10422000012300E000237A6902F003029200934028
:104230003A6913433B6137497B699B0802333A690A
:1042400041F82320374B9B683B61FB68DB433A69AD
:1042500013403B613B685B6803F48013002B03D081
:104260003A69FB6813433B612E4A3B6993602D4BCF
:10427000DB683B61FB68DB433A6913403B613B68A9
:104280005B6803F40013002B03D03A69FB68134307
:104290003B61244A3B69D360224B5B683B61FB680E
:1042A000DB433A6913403B613B685B6803F40033CE
:1042B000002B03D03A69FB6813433B61194A3B6901
:1042C0005360184B1B683B61FB68DB433A69134042
:1042D0003B613B685B6803F48033002B03D03A6991
:1042E000FB6813433B610F4A3B6913607B690133F1
:1042F0007B613B681A687B6922FA03F3002B7FF429
:10430000A9AE00BF00BF1C37BD465DF8047B7047F7
:10431000001002400000014000040048000800486E
:10432000000C00480004014080B487B000AF786002
:10433000396000237B61B2E001227B6902FA03F35A
:104340003A6813403B613B69002B00F0A5805B4A53
:104350007B699B08023352F82330FB607B6903F0D2
:1043600003039B000F2202FA03F3FA681340FB6079
:104370007B68B3F1904F13D07B68514A93420DD0C4
:104380007B68504A934207D07B684F4A934201D1E1
:10439000032306E0052304E0022302E0012300E0FA
:1043A00000237A6902F0030292009340FA689A426D
:1043B00032D1464B1A683B69DB43444913400B60DA
:1043C000424B5A683B69DB43404913404B603F4BCB
:1043D000DA683B69DB433D491340CB603B4B9A684D
:1043E0003B69DB43394913408B607B6903F003036E
:1043F0009B000F2202FA03F3FB60304A7B699B08A3
:10440000023352F82310FB68DA432C487B699B087F
:104410000A40023340F823207B681A687B695B00FE
:10442000032101FA03F3DB431A407B681A607B69BE
:10443000DA087B68083253F822107B6903F007031F
:104440009B000F2202FA03F3DB437A69D20819407A
:104450007B68083243F822107B68DA687B695B006E
:10446000032101FA03F3DB431A407B68DA607B68BF
:104470005A6801217B6901FA03F3DB431A407B6828
:104480005A607B689A687B695B00032101FA03F339
:10449000DB431A407B689A607B6901337B613A6831
:1044A0007B6922FA03F3002B7FF446AF00BF00BF05
:1044B0001C37BD465DF8047B704700BF000001401B
:1044C0000004004800080048000C004800040140B7
:1044D00080B483B000AF78600B467B8013467B705E
:1044E0007B78002B03D07A887B689A6102E07A8817
:1044F0007B689A6200BF0C37BD465DF8047B70474D
:1045000080B485B000AF78600B467B807B685B69C8
:10451000FB607A88FB6813401A04FB68D9437B88E8
:104520000B401A437B689A6100BF1437BD465DF8A3
:10453000047B704780B582B000AF78607B68002B49
:1045400001D101238DE07B6893F84130DBB2002B71
:1045500006D17B68002283F840207868FDF758F880
:104560007B68242283F841207B681B681A687B687B
:104570001B6822F001021A607B685A687B681B681E
:1045800022F070621A617B681B689A687B681B68FE
:1045900022F400429A607B68DB68012B07D17B68BC
:1045A0009A687B681B6842F400429A6006E07B6868
:1045B0009A687B681B6842F404429A607B68DB68F7
:1045C000022B08D17B681B685A687B681B6842F421
:1045D00000625A6007E07B681B685A687B681B684A
:1045E00022F400625A607B681B685B687A68126814
:1045F00043F0007343F4004353607B681B68DA6840
:104600007B681B6822F40042DA607B681A697B6869
:104610005B6942EA03017B689B691A027B681B683D
:104620000A43DA607B68D9697B681A6A7B681B6811
:104630000A431A607B681B681A687B681B6842F033
:1046400001021A607B6800225A647B68202283F88A
:1046500041207B6800221A637B68002283F8422095
:10466000002318460837BD4680BD80B582B000AF34
:1046700078607B68002B01D1012321E07B68242234
:1046800083F841207B681B681A687B681B6822F0EE
:1046900001021A607868FDF72DF87B6800225A64E1
:1046A0007B68002283F841207B6800221A637B68C4
:1046B000002283F842207B68002283F840200023F8
:1046C00018460837BD4680BD80B584B000AFF8609D
:1046D000B9601346FB80FB6893F84130DBB2202BB6
:1046E00056D1FB6893F84030012B01D1022350E0F2
:1046F000FB68012283F84020FB68212283F84120D7
:10470000FB68202283F84220FB6800225A64FB6881
:104710001B685A68FB681B6822F400425A60FB68F9
:10472000BA685A62FB68FA885A85FB685B8D9AB250
:10473000FB681A85FB68194ADA62FB68184A5A63F3
:10474000FB681B6AB3F5003F17D1FB685B6A1A78F8
:10475000FB681B689A62FB685B6A5A1CFB685A62BA
:10476000FB685B8D9BB2013B9AB2FB685A85FB6884
:104770001B8D013B9AB2FB681A85FB68002283F807
:10478000402048F20101F86801F052FA002300E0ED
:10479000022318461037BD4680BD00BF0000FFFF52
:1047A000C349000880B584B000AFF860B960134613
:1047B000FB80FB6893F84130DBB2202B39D1FB68DA
:1047C00093F84030012B01D1022333E0FB68012232
:1047D00083F84020FB68222283F84120FB682022D6
:1047E00083F84220FB6800225A64FB681B685A6801
:1047F000FB681B6822F400425A60FB68BA685A6280
:10480000FB68FA885A85FB685B8D9AB2FB681A854B
:10481000FB680A4ADA62FB68094A5A63FB680022AD
:1048200083F8402048F20201F86801F001FA002301
:1048300000E0022318461037BD4680BD0000FFFF90
:10484000C349000880B584B000AF78607B681B68FE
:104850009B69FB607B681B681B68BB607B685B6B4C
:10486000002B05D07B685B6BBA68F968786898475D
:1048700000BF1037BD4680BD80B586B000AF786000
:104880007B681B689B697B617B681B681B683B615D
:104890007B6903F48073002B0FD03B6903F0800326
:1048A000002B0AD07B685B6C43F001027B685A6482
:1048B0007B681B684FF48072DA617B6903F4806364
:1048C000002B0FD03B6903F08003002B0AD07B68DC
:1048D0005B6C43F008027B685A647B681B684FF48A
:1048E0008062DA617B6903F40073002B0FD03B69AF
:1048F00003F08003002B0AD07B685B6C43F002025C
:104900007B685A647B681B684FF40072DA617B68CD
:104910005B6CFB60FB6803F00B03002B03D0F968B2
:10492000786800F0F9FF00BF1837BD4680BD80B43D
:1049300083B000AF786000BF0C37BD465DF8047BE4
:10494000704780B483B000AF786000BF0C37BD46BD
:104950005DF8047B704780B483B000AF78600B468D
:10496000FB7013463B8000BF0C37BD465DF8047BEF
:10497000704780B483B000AF786000BF0C37BD468D
:104980005DF8047B704780B483B000AF786000BFEF
:104990000C37BD465DF8047B704780B483B000AF30
:1049A000786000BF0C37BD465DF8047B704780B46B
:1049B00083B000AF786000BF0C37BD465DF8047B64
:1049C000704780B586B000AFF860B9607A60FB6868
:1049D000DB6A7B61BB683B61FB6893F84030012B6D
:1049E00001D10223E2E0FB68012283F840203B6909
:1049F00003F02003002B09D07B6803F02003002B79
:104A000004D03969F86800F0CFFDCAE03B6903F0D3
:104A10001003002B4BD07B6803F01003002B46D013
:104A2000FB685B8D9BB2002B28D1FB6893F841306B
:104A3000DBB2282B08D17B69B3F1007F04D139693F
:104A4000F86800F015FF31E0FB6893F84130DBB205
:104A5000292B0ED17B6913F5803F0AD0FB681B68B8
:104A60001022DA61F86801F06EF8F86800F078FC5E
:104A70001CE0FB681B681022DA618FE0FB681B6892
:104A80001022DA61FB685B6C43F00402FB685A6435
:104A90007B69002B03D07B69B3F1807F7ED1FB68FB
:104AA0005B6C1946F86800F037FF77E076E03B6909
:104AB00003F00403002B2FD07B6803F00403002BCA
:104AC0002AD0FB685B8D9BB2002B18D0FB681B685B
:104AD0005A6AFB685B6AD2B21A70FB685B6A5A1C3E
:104AE000FB685A62FB681B8D013B9AB2FB681A8512
:104AF000FB685B8D9BB2013B9AB2FB685A85FB68F1
:104B00005B8D9BB2002B4BD17B6913F5803F47D067
:104B1000F86800F025FC43E03B6903F00803002B34
:104B200009D07B6803F00803002B04D03969F868CA
:104B300000F055FB35E03B6903F00203002B30D059
:104B40007B6803F00203002B2BD0FB685B8D9BB2CC
:104B5000002B18D0FB685B6A1A78FB681B689A62A6
:104B6000FB685B6A5A1CFB685A62FB685B8D9BB2F0
:104B7000013B9AB2FB685A85FB681B8D013B9AB2D8
:104B8000FB681A850DE07B69B3F1807F02D07B69F9
:104B9000002B06D1F86800F0E3FB02E000BF00E064
:104BA00000BFFB68002283F8402000231846183716
:104BB000BD4680BD80B588B002AFF860B9607A604C
:104BC000FB6893F84030012B01D10223E7E0FB683A
:104BD000012283F84020BB6803F01003002B16D09D
:104BE0007B6803F01003002B11D0FB681B681022B8
:104BF000DA61FB685B6C43F00402FB685A642021B5
:104C0000F86801F015F8F86800F09DFFC2E0BB6895
:104C100003F08003002B7FD07B6803F04003002B60
:104C20007AD0FB681B681A68FB681B6822F0400298
:104C30001A60FB685B8D9BB2002B5CD0FB681B6825
:104C40005B689BB2C3F309037B82FB685B8D9BB2FD
:104C5000FF2B14D9FB681B689B691B0CDBB203F0AC
:104C60000103DBB2012B03D1FB6801221A8502E0AC
:104C7000FB68FF221A854FF080737B6110E0FB68B0
:104C80005B8D9AB2FB681A85FB68DB6A13F5803F7F
:104C900003D0FB68DB6A7B6102E04FF000737B614D
:104CA000FB681B8DDAB2798A002300937B69F86870
:104CB00000F08CFFFB685B8D9AB2FB681B8DD31AEA
:104CC0009AB2FB685A85FB6893F84130DBB2222B1D
:104CD00008D1FB681B681A68FB681B6842F4004235
:104CE0001A6057E0FB681B681A68FB681B6842F48F
:104CF00080421A604EE0FB681B685B6803F000733B
:104D0000B3F1007F03D0F86800F0EDFA42E04021F3
:104D1000F86800F001FE3DE0BB6803F04003002BA3
:104D200028D07B6803F04003002B23D0FB685B8D09
:104D30009BB2002B19D1FB681B685B6803F0007302
:104D4000B3F1007F25D0FB68DB6A13F5803F08D103
:104D5000FB681B685A68FB681B6842F480425A6013
:104D600017E0F86800F0BFFA13E04021F86800F09F
:104D7000D3FD0EE0BB6803F02003002B0AD07B6854
:104D800003F02003002B05D0B968F86800F044FB5D
:104D900000E000BFFB68002283F840200023184693
:104DA0001837BD4680BD000080B588B002AFF860FE
:104DB000B9607A60904B7B61FB6893F84030012BBF
:104DC00001D102232FE1FB68012283F84020BB6858
:104DD00003F01003002B16D07B6803F01003002BA8
:104DE00011D0FB681B681022DA61FB685B6C43F032
:104DF0000402FB685A642021F86800F019FFF86883
:104E000000F0A1FE0AE1BB6803F00203002B0ED004
:104E10007B6803F00203002B09D0FB681B68FA686B
:104E2000126D9A62FB684FF0FF321A65F6E0BB68BC
:104E300003F08003002B6DD07B6803F04003002B50
:104E400068D00121F86800F077FF1021F86800F0C1
:104E5000EFFEFB685B8D9BB2002B56D0FB685B8D31
:104E60009BB2FF2B1ED9FB681B689B691B0CDBB236
:104E700003F00103DBB2012B03D1FB6801221A8589
:104E800002E0FB68FF221A85FB68DB6C99B2FB68C5
:104E90001B8DDAB2002300934FF08073F86800F0A6
:104EA00095FE11E0FB685B8D9AB2FB681A85FB6882
:104EB000DB6C99B2FB681B8DDAB2002300934FF0D4
:104EC0000073F86800F082FEFB685B8D9AB2FB68A5
:104ED0001B8DD31A9AB2FB685A85FB6893F8413050
:104EE000DBB2222B08D1FB681B681A68FB681B68C1
:104EF00042F400421A6091E0FB681B681A68FB6884
:104F00001B6842F480421A6088E04021F86800F093
:104F100003FD83E0BB6803F04003002B70D07B6887
:104F200003F04003002B6BD00121F86800F004FF70
:104F30001021F86800F07CFEFB6893F84130DBB28A
:104F4000222B01D12D4B7B61FB685B8D9BB2FF2B2C
:104F50001ED9FB681B689B691B0CDBB203F00103C5
:104F6000DBB2012B03D1FB6801221A8502E0FB684A
:104F7000FF221A85FB68DB6C99B2FB681B8DDAB2E5
:104F80007B6900934FF08073F86800F01FFE11E01A
:104F9000FB685B8D9AB2FB681A85FB68DB6C99B283
:104FA000FB681B8DDAB27B6900934FF00073F868E1
:104FB00000F00CFEFB685B8D9AB2FB681B8DD31A68
:104FC0009AB2FB685A85FB6893F84130DBB2222B1A
:104FD00008D1FB681B681A68FB681B6842F4004232
:104FE0001A601BE0FB681B681A68FB681B6842F4C8
:104FF00080421A6012E000BF002000800024008080
:10500000BB6803F02003002B08D07B6803F020036B
:10501000002B03D0B968F86800F0FEF9FB680022A5
:1050200083F84020002318461837BD4680BD00BFD6
:1050300080B588B000AFF860B9607A60FB68DB6A61
:10504000BB610023FB61FB6893F84030012B01D169
:105050000223C0E0FB68012283F84020BB6803F014
:105060002003002B09D07B6803F02003002B04D021
:10507000B968F86800F098FAA8E0BB6803F010037C
:10508000002B00F095807B6803F01003002B00F0EC
:105090008F807B6803F48043002B04D17B6803F48A
:1050A0000043002B7DD0FB68DB6B002B0CD07B68B2
:1050B00003F40043002B07D0FB68DB6B1B685B68C5
:1050C000002B01D10123FB61FB689B6B002B0CD0F3
:1050D0007B6803F48043002B07D0FB689B6B1B6845
:1050E0005B68002B01D10123FB61FB69012B28D1F7
:1050F000FB6893F84130DBB2282B08D1BB69B3F1D0
:10510000007F04D1B968F86800F0B2FB48E0FB68A2
:1051100093F84130DBB2292B0ED1BB6913F5803FE8
:105120000AD0FB681B681022DA61F86800F00BFDFA
:10513000F86800F015F933E0FB681B681022DA61AB
:1051400034E0FB681B681022DA61FB685B6C43F09B
:105150000402FB685A64FB6893F84130FB75BB6935
:10516000002B03D0BB69B3F1807F1FD1FB7D212BC6
:1051700002D0FB7D292B03D1FB6821221A6308E0B2
:10518000FB7D222B02D0FB7D2A2B02D1FB68222241
:105190001A63FB685B6C1946F86800F0BDFB05E01C
:1051A00004E0FB681B681022DA610FE000BF0DE02D
:1051B000BB6803F00803002B08D07B6803F00803EA
:1051C000002B03D0B968F86800F009F8FB680022EA
:1051D00083F84020002318462037BD4680BD80B5A7
:1051E00084B000AF786039607B6893F84130DBB2FF
:1051F00003F02803282B6AD17B681B689B691B0C72
:10520000DBB203F00103FB737B681B689B691B0C1B
:105210009BB203F0FE03BB817B681B689B689BB25B
:10522000C3F309037B817B681B68DB689BB203F0D7
:10523000FE033B817B68DB68022B38D17B89DB096D
:105240009AB2BB8953409BB203F00603002B1CD1DA
:105250007B89BB817B689B6C5A1C7B689A647B68EA
:105260009B6C022B3BD17B6800229A647B681B6895
:105270000822DA617B68002283F84020BA89FB7B30
:1052800019467868FFF767FB29E03B89BB814FF43B
:105290000041786800F050FD7B68002283F84020D0
:1052A000BA89FB7B19467868FFF755FB17E04FF486
:1052B0000041786800F040FD7B68002283F84020C0
:1052C000BA89FB7B19467868FFF745FB07E07B68E6
:1052D0001B680822DA617B68002283F8402000BF47
:1052E0001037BD4680BD80B582B000AF78607B6866
:1052F000002283F842207B6893F84130DBB2212BF7
:1053000015D17B68202283F841207B6811221A6323
:105310007B6800225A630121786800F00DFD7B68EC
:10532000002283F840207868FFF701FB14E07B68D7
:10533000202283F841207B6812221A637B680022B6
:105340005A630221786800F0F7FC7B68002283F83A
:1053500040207868FFF7F5FA00BF0837BD4680BDEA
:1053600080B584B000AF78607B681B681B68FB6009
:105370007B68002283F84220FB6803F48043002B03
:1053800008D07B681B681A687B681B6822F480421F
:105390001A600CE0FB6803F40043002B07D07B6825
:1053A0001B681A687B681B6822F400421A607B68DD
:1053B00093F84130DBB2292B12D17B68282283F885
:1053C00041207B6821221A630121786800F0B4FC37
:1053D0007B68002283F840207868FBF7B5FA17E075
:1053E0007B6893F84130DBB22A2B11D17B682822ED
:1053F00083F841207B6822221A630221786800F03A
:105400009BFC7B68002283F840207868FBF78CFACD
:1054100000BF1037BD4680BD80B586B000AF786054
:1054200039603B687B617B681B682022DA617B689E
:1054300093F84130DBB2212B07D10121786800F0CD
:105440007BFC7B6811221A630CE07B6893F8413087
:10545000DBB2222B06D10221786800F06DFC7B685C
:1054600012221A637B681B6859687B681A684C4B68
:105470000B4053607B6800225A637B68494ADA62BA
:105480007B6903F01003002B09D07B681B68102296
:10549000DA617B685B6C43F004027B685A647B686A
:1054A00093F84130DBB2602B0AD17B6903F004032F
:1054B000002B05D07B681B685B6ADBB2FB60FB6876
:1054C000786800F040FB7B685B6C3B617B6893F81D
:1054D0004130DBB2602B02D03B69002B06D07B68E9
:1054E0005B6C1946786800F017FA54E07B6893F813
:1054F0004130DBB2212B24D17B68202283F841206C
:105500007B6800221A637B6893F84230DBB2402B41
:105510000BD17B68002283F842207B68002283F84D
:1055200040207868FFF72FFA35E07B68002283F887
:1055300042207B68002283F840207868FFF7F7F963
:1055400029E07B6893F84130DBB2222B23D17B68C2
:10555000202283F841207B6800221A637B6893F83D
:105560004230DBB2402B0BD17B68002283F8422013
:105570007B68002283F840207868FFF70EFA0AE083
:105580007B68002283F842207B68002283F8402059
:105590007868FFF7D6F900BF1837BD4680BD00BF59
:1055A00000E800FE0000FFFF80B586B000AF786025
:1055B00039607B681B681B683B613B687B617B686B
:1055C000DB6AFB607B6893F84130FB727B681B6889
:1055D0002022DA61FB7A212B02D0FB7A292B08D119
:1055E00048F20101786800F0A7FB7B6821221A636A
:1055F00019E0FB7A222B02D0FB7A2A2B08D148F241
:105600000201786800F098FB7B6822221A630AE0A6
:10561000FB7A282B07D148F20301786800F08CFB55
:105620007B6800221A637B681B685A687B681B686A
:1056300042F400425A607B681B6859687B681A68AC
:10564000894B0B405360786800F07DFA3B6903F4A6
:105650008043002B13D07B681B681A687B681B682B
:1056600022F480421A607B689B6B002B1FD07B6802
:105670009B6B1B685B689AB27B685A8517E03B6935
:1056800003F40043002B12D07B681B681A687B6808
:105690001B6822F400421A607B68DB6B002B06D08B
:1056A0007B68DB6B1B685B689AB27B685A857B6999
:1056B00003F00403002B20D07B6923F004037B61FB
:1056C0007B681B685A6A7B685B6AD2B21A707B6817
:1056D0005B6A5A1C7B685A627B681B8D002B0CD05E
:1056E0007B681B8D013B9AB27B681A857B685B8D5A
:1056F0009BB2013B9AB27B685A857B685B8D9BB2FB
:10570000002B05D07B685B6C43F004027B685A6415
:105710007B6903F01003002B49D03B6903F01003B1
:10572000002B44D07B685B8D9BB2002B28D17B681B
:1057300093F84130DBB2282B08D1FB68B3F1007F2E
:1057400004D17969786800F093F830E07B6893F8C9
:105750004130DBB2292B0ED1FB6813F5803F0AD014
:105760007B681B681022DA61786800F0ECF97868D1
:10577000FFF7F6FD1BE07B681B681022DA6116E07C
:105780007B681B681022DA617B685B6C43F0040263
:105790007B685A64FB68002B03D0FB68B3F1807F01
:1057A00005D17B685B6C1946786800F0B5F87B68BA
:1057B000002283F842207B6800225A637B685B6C7E
:1057C000002B10D07B685B6C1946786800F0A4F859
:1057D0007B6893F84130DBB2282B41D17969786836
:1057E00000F046F83CE07B68DB6A13F5803F14D09C
:1057F0007868FFF7B5FD7B681C4ADA627B68202277
:1058000083F841207B6800221A637B68002283F8BA
:1058100040207868FFF7ADF822E07B6893F84130CC
:10582000DBB2222B0ED17B68202283F841207B68DB
:1058300000221A637B68002283F840207868FBF717
:1058400073F80DE07B68202283F841207B680022FA
:105850001A637B68002283F840207868FBF774F8AD
:1058600000BF1837BD4680BD00E800FE0000FFFF06
:1058700080B582B000AF786039607B68254ADA6213
:105880007B6800221A637B68202283F841207B68B2
:10589000002283F842207B6800225A633B6803F0B1
:1058A0000403002B22D07B681B685A6A7B685B6A02
:1058B000D2B21A707B685B6A5A1C7B685A627B683A
:1058C0001B8D002B12D07B681B8D013B9AB27B682D
:1058D0001A857B685B8D9BB2013B9AB27B685A85C7
:1058E0007B685B6C43F004027B685A6448F20301F6
:1058F000786800F021FA7B681B681022DA617B6807
:10590000002283F840207868FFF733F800BF08379B
:10591000BD4680BD0000FFFF80B584B000AF786059
:1059200039607B6893F84130FB737B68002283F811
:1059300042207B686D4ADA627B6800225A857B6868
:105940005A6C3B681A437B685A64FB7B282B05D052
:10595000FB7B292B02D0FB7B2A2B0BD10321786800
:1059600000F0EAF97B68282283F841207B68604ACE
:105970005A6330E048F20301786800F0DDF9786896
:1059800000F0E1F87B6893F84130DBB2602B1FD068
:105990007B68202283F841207B681B689B6903F0A9
:1059A0002003202B14D17B681B689B6903F0100334
:1059B000102B09D17B681B681022DA617B685B6C55
:1059C00043F004027B685A647B681B682022DA611A
:1059D0007B6800225A637B681B6BBB607B689B6B98
:1059E000002B39D0BB68112B02D0BB68212B33D1DF
:1059F0007B681B681B6803F48043B3F5804F07D1B5
:105A00007B681B681A687B681B6822F480421A60F6
:105A10007B689B6B1846FEF7BAFA0346012B17D03A
:105A20007B689B6B334A5A637B68002283F8402073
:105A30007B689B6B1846FEF7C9F90346002B4DD0D7
:105A40007B689B6B5B6B7A68926B1046984745E06E
:105A5000786800F051F841E07B68DB6B002B39D0AF
:105A6000BB68122B02D0BB68222B33D17B681B682A
:105A70001B6803F40043B3F5004F07D17B681B6834
:105A80001A687B681B6822F400421A607B68DB6B33
:105A90001846FEF77CFA0346012B17D07B68DB6BB8
:105AA000144A5A637B68002283F840207B68DB6BD2
:105AB0001846FEF78BF90346002B11D07B68DB6B91
:105AC0005B6B7A68D26B1046984709E0786800F003
:105AD00013F805E0786800F00FF802E000BF00E07E
