:020000040800F2
:1000000000300020CD110008F1100008F9100008A0
:10001000011100080911000811110008000000007A
:100020000000000000000000000000000194000833
:10003000191100080000000051960008B996000848
:100040001D1200081D1200081D1200081D120008D4
:100050001D1200081D1200081D1200081D120008C4
:100060001D1200081D1200081D12000829110008A9
:100070003D1100081D1200081D1200081D12000885
:100080001D1200081D120008511100081D12000861
:100090001D1200081D1200081D1200081D12000884
:1000A0001D1200081D1200081D1200081D12000874
:1000B0001D1200081D120008000000006D1100084C
:1000C0008111000800000000000000001D1200085F
:1000D000000000001D1200081D1200081D1200087B
:1000E0001D1200081D1200080000000000000000A2
:1000F0000000000000000000000000000000000000
:1001000000000000000000000000000000000000EF
:100110000000000000000000951100081D120008FA
:1001200000000000000000000000000000000000CF
:1001300000000000000000000000000000000000BF
:100140001D1200081D120008000000001D1200080A
:100150001D1200081D1200081D1200081D120008C3
:100160001D1200081D120008000000000000000021
:10017000000000000000000000000000000000007F
:08018000000000001D12000840
:1001900010B5054C237833B9044B13B10448AFF3C1
:1001A00000800123237010BD6400002000000000C7
:1001B0006C9D000808B5034B1BB103490348AFF31E
:1001C000008008BD00000000680000206C9D000851
:1001D00080B582B000AF7860786802F0C0FF7868C0
:1001E00002F022FF00BF0837BD4680BD80B483B057
:1001F00000AF00237B6014E000233B600BE00E495E
:100200007B685A013B6813444FF6FF7221F81320B4
:100210003B6801333B603B681F2BF0D97B6801339F
:100220007B607B68072BE7D900BF00BF0C37BD465A
:100230005DF8047B704700BF9402002080B584B055
:1002400000AF03460A46FB711346BB800023FB60E8
:100250000AE01021094802F0CDFEBB88184606F0DE
:10026000DDFEFB680133FB60FB795B00FA689A42B4
:10027000EFDB00BF00BF1037BD4680BD0004004863
:1002800080B483B000AF7860184B1B78DBB2DB0919
:10029000DBB203F00103D9B27A68137861F300038B
:1002A0001370124B1B78DBB203F07F03D9B27A686C
:1002B000137861F3470313700C4B5B78DAB27B68F9
:1002C0005A700A4B9B78DBB21B021AB2074BDB78E1
:1002D000DBB21BB213431BB29AB27B685A8000BFD9
:1002E0000C37BD465DF8047B704700BF98040020C2
:1002F00090B583B000AF2F48FFF7C2FF4FF6FF73F2
:10030000FB802C4B1B7803F00103DBB2002B0ED0DB
:10031000284B1B78C3F34603DBB21846254B5B78AA
:100320001946254A43010B4432F81330FB80214B18
:100330001B7803F00103DBB2002B1ED11D4B1B7891
:10034000C3F34603DBB21C461A4B5B781846194BC5
:100350005988194A6301034422F81310154B1B787E
:10036000C3F34603DBB21846124B5B781946124AB8
:1003700043010B4432F81330FB80104B1B78DAB288
:100380000F4B1A700D4B5B78DAB20D4B5A70FB882D
:100390001B0A9BB2DAB20A4B9A70FB88DAB2084B9E
:1003A000DA7004220649074802F008FF00BF0C3744
:1003B000BD4690BD9C0400209402002098040020BB
:1003C00094040020A801002080B483B000AF7860BE
:1003D0007B68094A934202D1084B01221A607B686C
:1003E000074A934202D1074B02221A6000BF0C3722
:1003F000BD465DF8047B704780000020B8040020F3
:10040000D0000020BC04002080B582B000AF78602E
:100410007B68044A934201D1FFF76AFF00BF0837A7
:10042000BD4680BDA801002080B582B000AF7860D5
:100430007B68064A934204D104220549034802F02E
:100440002BFF00BF0837BD4680BD00BFA8010020BC
:100450009804002080B582B000AF78607B68064ABF
:10046000934205D1054B02221A707868FFF7B0FE5F
:1004700000BF0837BD4680BDA80100200000002055
:1004800080B500AF00F0CCFE00F046F800F072FA44
:1004900000F04AFA00F0D8F900F016FA00F09AF8E5
:1004A00000F044F906F0A8FC104806F0E5FD03460C
:1004B0000F4A13600F4A00210F4806F005FD03465E
:1004C0000E4A13600E4A00210E4806F0FDFC03465A
:1004D0000D4A13600D4A00210D4806F0F5FC034655
:1004E0000C4A136006F0BCFC00BFFDE7349E000818
:1004F00090020020C89D0008210A00088402002004
:10050000EC9D0008550A000888020020109E000893
:10051000790A00088C02002080B596B000AF07F180
:10052000300328220021184609F038FB07F11C038C
:1005300000221A605A609A60DA601A613B46002213
:100540001A605A609A60DA601A615A619A610223ED
:100550003B6301233B6410237B640223FB64002381
:100560003B654FF400237B6507F13003184604F028
:1005700053FA0346002B01D000F01AFB0F23FB6156
:1005800000233B6200237B620023BB620023FB62EB
:1005900007F11C030021184605F07CFA0346002BE6
:1005A00001D000F005FBA1233B600023BB604FF4AA
:1005B00080733B610023FB603B46184605F0BCFCA2
:1005C0000346002B01D000F0F3FA00BF5837BD46B8
:1005D00080BD000080B58AB000AF07F11C03002287
:1005E0001A605A609A603B1D00221A605A609A6035
:1005F000DA601A615A614C4B4FF0A0421A604A4BC4
:1006000000225A60484B00229A60474B01221A612F
:10061000454B00225A76444B002283F82020424B5F
:100620000022DA62404B01229A623F4B0022DA60DC
:100630003D4B0622DA613C4B002283F830203A4BD6
:1006400004225A61384B00221A76374B00225A6333
:10065000354800F039FE0346002B01D000F0A8FA1F
:100660000023FB6107F11C0319462F4801F078FDB8
:100670000346002B01D000F09BFA01237B6001238D
:10068000BB6000233B610023FB6000237B610023F0
:10069000BB613B1D1946244801F0A4FA0346002B18
:1006A00001D000F085FA0223BB603B1D19461E48AD
:1006B00001F098FA0346002B01D000F079FA0323E9
:1006C000BB603B1D1946184801F08CFA0346002B0D
:1006D00001D000F06DFA0423BB603B1D194612489F
:1006E00001F080FA0346002B01D000F061FA0523E7
:1006F000BB603B1D19460C4801F074FA0346002B01
:1007000001D000F055FA0623BB603B1D1946064890
:1007100001F068FA0346002B01D000F049FA00BF4F
:100720002837BD4680BD00BF8000002080B586B060
:1007300000AF3B4600221A605A609A60DA601A6184
:100740005A613F4B3F4A1A603D4B00225A603C4B76
:1007500000229A603A4B01221A61394B00225A76E4
:10076000374B002283F82020354B0022DA62344BCD
:1007700001229A62324B0022DA60314B0522DA61A3
:100780002F4B002283F830202D4B04225A612C4B32
:1007900000221A762A4B00225A63294800F094FD61
:1007A0000346002B01D000F003FA01233B60012334
:1007B0007B600023FB600023BB6000233B610023C0
:1007C0007B613B4619461E4801F00CFA0346002B9C
:1007D00001D000F0EDF902237B603B461946184832
:1007E00001F000FA0346002B01D000F0E1F90323E9
:1007F0007B603B461946124801F0F4F90346002B92
:1008000001D000F0D5F904237B603B4619460C4823
:1008100001F0E8F90346002B01D000F0C9F90523E7
:100820007B603B461946064801F0DCF90346002B85
:1008300001D000F0BDF900BF1837BD4680BD00BF34
:10084000D00000200001005080B500AF1B4B1C4AB7
:100850001A601A4B1B4A5A60184B20229A60174B99
:100860000122DA60154B00221A61144B00225A61F2
:10087000124B00229A61114B0022DA610F4B0022C9
:100880001A620E4802F0D0FB0346002B01D000F0A4
:100890008FF90021094804F027F80346002B01D006
:1008A00000F086F90021054804F069F80346002BA2
:1008B00001D000F07DF900BF80BD00BFA80100207D
:1008C000005400402B1D200080B500AF144B154A8A
:1008D0001A60134B4FF416425A60114B00229A6073
:1008E0000F4B0022DA600E4B00221A610C4B0C22D7
:1008F0005A610B4B00229A61094B0022DA61084BC6
:1009000000221A62064B00225A62054805F0D4FE06
:100910000346002B01D000F04BF900BF80BD00BFA3
:10092000FC0100200038014080B582B000AF104BC0
:100930005B690F4A43F0010353610D4B5B6903F0A0
:1009400001037B607B68002205210B2001F0DAFEA9
:100950000B2001F0F3FE002205210C2001F0D2FE55
:100960000C2001F0EBFE00BF0837BD4680BD00BF84
:100970000010024080B58AB000AF07F114030022D6
:100980001A605A609A60DA601A61234B5B69224AE6
:1009900043F400235361204B5B6903F400233B6164
:1009A0003B691D4B5B691C4A43F4800353611A4B3E
:1009B0005B6903F48003FB60FB68174B5B69164AB5
:1009C00043F400335361144B5B6903F40033BB60A1
:1009D000BB68114B5B69104A43F4802353610E4B93
:1009E0005B6903F480237B607B68002230210B4825
:1009F00002F0E8FA30237B610123BB610023FB6135
:100A000000233B6207F114031946044802F094F8EE
:100A100000BF2837BD4680BD0010024000040048DA
:100A200080B582B000AF7860084B1B781A46084B3F
:100A3000A3F80021054B1B7864211846FFF7FEFB45
:100A40004FF47A7006F0EAFA00BFEDE700000020EC
:100A50009402002080B582B000AF7860042204497F
:100A6000044802F019FC012006F0D8FAFBE700BFA9
:100A700098040020A801002080B582B000AF786003
:100A8000FFF7B4FB06231A463849394800F0AEFD9B
:100A90000346002B01D000F08BF805231A46354998
:100AA000354800F0A3FD0346002B01D000F080F88C
:100AB00000BF324B1B68002B03D1314B1B68002B4E
:100AC000F7D02E4B00221A602D4B00221A60274BC4
:100AD0001B889AB22B4BA3F88020244B5B889AB2D8
:100AE000284BA3F88220214B9B889AB2254BA3F870
:100AF00084201E4BDB889AB2224BA3F886201B4B26
:100B00001B899AB21F4BA3F89020184B5B899AB2AD
:100B10001C4BA3F89220174B1B889AB2194BA3F8D1
:100B20008820144B5B889AB2164BA3F88A20114B8D
:100B30009B889AB2134BA3F88C200E4BDB889AB299
:100B4000104BA3F88E200B4B1B899AB20D4BA3F8C8
:100B500094200C4B5B88DBB21A4620210A4802F035
:100B600031FA4FF4967006F059FA8BE7A004002092
:100B700080000020AC040020D0000020B804002039
:100B8000BC040020940200200004004880B582B01C
:100B900000AF78607B681B68044A934201D100F083
:100BA00055FB00BF0837BD4680BD00BF00100040A8
:100BB00080B400AF72B600BF00BFFDE780B582B061
:100BC00000AF114B9B69104A43F0010393610E4B38
:100BD0009B6903F001037B607B680B4BDB690A4A6E
:100BE00043F08053D361084BDB6903F080533B60D3
:100BF0003B6800220F216FF0010001F083FD00BF70
:100C00000837BD4680BD00BF0010024080B58EB0E1
:100C100000AF786007F1240300221A605A609A60DE
:100C2000DA601A617B681B68B3F1A04F76D17B4B09
:100C30001B680133794A1360784B1B68012B0BD179
:100C4000774B5B69764A43F080535361744B5B6921
:100C500003F080533B623B6A714B5B69704A43F41B
:100C6000003353616E4B5B6903F40033FB61FB6936
:100C70006B4B5B696A4A43F480235361684B5B6941
:100C800003F48023BB61BB690F237B620323BB6238
:100C90000023FB6207F1240319464FF0904001F056
:100CA0004BFF03237B620323BB620023FB6207F13C
:100CB000240319465B4801F03FFF5B4B5B4A1A6017
:100CC000594B00225A60584B00229A60564B8022A2
:100CD000DA60554B4FF480721A61534B4FF48062C7
:100CE0005A61514B00229A614F4B0022DA614E4803
:100CF00001F040FD0346002B01D0FFF759FF7B6850
:100D0000494A9A63484A7B685362002205211220AF
:100D100001F0F8FC122001F011FD7AE07B681B68FD
:100D2000434A934275D13D4B1B6801333B4A1360E4
:100D30003A4B1B68012B0BD1394B5B69384A43F0A6
:100D400080535361364B5B6903F080537B617B6951
:100D5000334B5B69324A43F400335361304B5B6978
:100D600003F400333B613B692D4B5B692C4A43F430
:100D7000802353612A4B5B6903F48023FB60FB688B
:100D8000F0237B620323BB620023FB6207F1240391
:100D900019464FF0904001F0CFFE04237B620323FD
:100DA000BB620023FB6207F1240319461D4801F0D2
:100DB000C3FE204B204A1A601E4B00225A601D4B76
:100DC00000229A601B4B8022DA601A4B4FF480722B
:100DD0001A61184B4FF480625A61164B00229A61D7
:100DE000144B0022DA61134801F0C4FC0346002BC7
:100DF00001D0FFF7DDFE7B680E4A9A630D4A7B68DF
:100E0000536200220521122001F07CFC122001F027
:100E100095FC00BF3837BD4680BD00BFC004002030
:100E20000010024000040048200100200800024099
:100E300000010050640100201C00024080B58AB00F
:100E400000AF786007F1140300221A605A609A60BC
:100E5000DA601A617B681B682E4A934255D12E4B8B
:100E60005B692D4A43F4003353612B4B5B6903F4F8
:100E700000333B613B69284B5B69274A43F480237D
:100E80005361254B5B6903F48023FB60FB684FF4DF
:100E900000437B611223BB610023FB6103233B62A0
:100EA00004237B6207F1140319464FF0904001F0D0
:100EB00043FE80237B611223BB610023FB6103237C
:100EC0003B6204237B6207F114031946134801F0C7
:100ED00033FE114BDB69104A43F40013D3610E4B10
:100EE000DB6903F40013BB60BB68002205211F20EF
:100EF00001F008FC1F2001F021FC00220521202028
:100F000001F000FC202001F019FC00BF2837BD468D
:100F100080BD00BF005400400010024000040048A3
:100F200080B582B000AF78607B681B680E4A934240
:100F300015D10E4BDB690D4A23F40013D3614FF436
:100F400000414FF0904001F069FF8021084801F016
:100F500065FF1F2001F000FC202001F0FDFB00BF19
:100F60000837BD4680BD00BF00540040001002405D
:100F70000004004880B58AB000AF786007F1140320
:100F800000221A605A609A60DA601A617B681B68F6
:100F9000184A934229D1184B9B69174A43F480435E
:100FA0009361154B9B6903F480433B613B69124B92
:100FB0005B69114A43F4003353610F4B5B6903F4DF
:100FC0000033FB60FB684FF4C0637B610223BB61AD
:100FD0000023FB6103233B6207237B6207F11403B9
:100FE00019464FF0904001F0A7FD00BF2837BD46DD
:100FF00080BD00BF003801400010024080B58EB0B7
:1010000000AF78600023FB620023BB62334BDB69D7
:10101000324A43F01003D361304BDB6903F0100315
:10102000FB60FB6807F1100207F114031146184634
:1010300004F050FF3B6AFB62FB6A002B03D104F013
:1010400005FF786304E004F001FF03465B007B6367
:101050007B6B234AA2FB03239B0C013BBB62214B0E
:10106000214A1A601F4B40F2E732DA601D4ABB6A20
:1010700053601C4B00221A611A4B00229A60194BD4
:1010800000229A61174805F08DF8034687F833303F
:1010900097F83330002B1BD1124805F0E5F80346D2
:1010A00087F8333097F83330002B11D1362001F018
:1010B00045FB7B680F2B08D800227968362001F0A9
:1010C00021FB0A4A7B68136002E0012387F8333072
:1010D00097F8333018463837BD4680BD00100240BF
:1010E00083DE1B43C40400200010004008000020E1
:1010F00080B400AF00BFFDE780B400AF00BFFDE7E4
:1011000080B400AF00BFFDE780B400AF00BFFDE7D3
:1011100080B400AF00BFFDE780B400AF00BFBD46A4
:101120005DF8047B7047000080B500AF024801F015
:1011300005FC00BF80BD00BF2001002080B500AFCE
:10114000024801F0FBFB00BF80BD00BF640100202E
:1011500080B500AF034800F023FB034800F020FBFC
:1011600000BF80BD80000020D000002080B500AF0F
:10117000024802F0E1F800BF80BD00BFA8010020D6
:1011800080B500AF024802F0F1F800BF80BD00BF9B
:10119000A801002080B500AF024805F0C1F800BFEB
:1011A00080BD00BFC404002080B400AF064BD3F85C
:1011B0008830054A43F47003C2F8883000BFBD464A
:1011C0005DF8047B704700BF00ED00E0DFF834D02D
:1011D000FFF7EAFF0C480D490D4A002302E0D458FE
:1011E000C4500433C4188C42F9D30A4A0A4C002371
:1011F00001E013600432A242FBD308F02DFDFFF79B
:101200003FF9FEE7003000200000002064000020CD
:10121000849E00086400002034200020FEE70000C7
:1012200080B500AF084B1B68074A43F010031360FA
:10123000032001F05CFA0F20FFF7E0FEFFF7BEFC91
:101240000023184680BD00BF0020024080B400AFDC
:10125000064B1B781A46064B1B681344044A13605E
:1012600000BFBD465DF8047B704700BF0C00002046
:101270001005002080B400AF034B1B681846BD4624
:101280005DF8047B704700BF1005002080B483B078
:1012900000AF786000BF0C37BD465DF8047B704737
:1012A00080B483B000AF786000BF0C37BD465DF8F6
:1012B000047B704780B483B000AF786000BF0C3708
:1012C000BD465DF8047B704780B59AB000AF78608A
:1012D000002387F8673000233B660023BB607B68F0
:1012E000002B01D1012372E17B681B69002B7B6815
:1012F0001B6C03F01003002B76D17B681B6C002B5A
:1013000052D17B6800225A647B680022DA647B68D1
:1013100000229A647B68002283F83C207868FFF7FB
:1013200075FC7B681B689B6803F08053002B3BD1E6
:10133000786801F0A5F8034687F867307B681B6C76
:1013400003F01003002B2FD197F86730002B2BD11F
:101350007B681B6C23F4885323F0020343F00202E2
:101360007B681A647B681B689A687B681B6822F03C
:1013700040529A607B681B689A687B681B6842F0E1
:1013800080529A60944B1B68944AA2FB03239A0CE8
:1013900013469B0013445B00BB6002E0BB68013B4B
:1013A000BB60BB68002BF9D17B681B689B6803F0AE
:1013B0008053002B07D07B681B689B6803F00053A9
:1013C000B3F1005F10D17B681B6C23F0120343F074
:1013D00010027B681A647B685B6C43F001027B68D7
:1013E0005A64012387F867307B681B6C03F0100395
:1013F000002B40F0DF8097F86730002B40F0DA8058
:101400007B681B689B6803F00403002B40F0D280CC
:101410007B681B6C23F4817343F002027B681A64BF
:101420006F4BFB657B681B68B3F1A04F02D16D4B1E
:10143000FB6002E04FF0A043FB607B681B689B6889
:1014400003F00303012B08D17B681B681B6803F0C2
:101450000103012B01D1012300E00023002B1CD14B
:10146000FB68002B10D0FB689B6803F00303012B83
:1014700007D1FB681B6803F00103012B01D1012395
:1014800000E00023002B08D1FB6D9B6823F4403261
:101490007B685B681A43FB6D9A607B685B7E5B03CD
:1014A0007A68526B012A02D04FF4805200E0002289
:1014B0001A437B68DB681A437B689B6813433A6E68
:1014C00013433B667B6893F82030012B1BD17B686C
:1014D0005B7E002B09D17B685B6A013B5A043B6E43
:1014E000134343F480333B660DE07B681B6C23F0B1
:1014F000220343F020027B681A647B685B6C43F034
:1015000001027B685A647B689B6A012B07D07B6869
:101510009A6A7B68DB6A13433A6E13433B667B68C7
:101520001B689B6803F00C03002B14D17B681B68BD
:10153000DB687A68126823F4804323F00203D360E7
:101540007B681B7E9A037B6893F830305B00134303
:101550003A6E13433B667B681B68DA68224B134084
:101560007A681268396E0B43D3607B681B69012B64
:101570000CD17B681B681B6B23F00F017B68DB6958
:101580005A1E7B681B680A431A6307E07B681B6866
:101590001A6B7B681B6822F00F021A637B680022BB
:1015A0005A647B681B6C23F0030343F001027B68E1
:1015B0001A640AE07B681B6C23F0120343F01002EC
:1015C0007B681A64012387F8673097F867301846FC
:1015D0006837BD4680BD00BF0400002083DE1B438A
:1015E000000300500001005007C0F0FF80B586B036
:1015F00000AFF860B9607A600023FB75FB681B6878
:101600009B6803F00403002B40F0B980FB6893F85B
:101610003C30012B01D10223B4E0FB68012283F8A6
:101620003C205A4B9B6803F01F03002B40F0A08026
:10163000F86800F0C1FE0346FB75FB7D002B40F00F
:101640009280FB681B6C23F4706323F0010343F466
:101650008072FB681A644D4B9B6803F01F03002BDC
:1016600004D0FB681B68B3F1A04F15D1FB681B6C5D
:1016700023F48012FB681A64FB681B68DB6803F0C4
:101680000073002B27D0FB681B6C23F4405343F4FA
:101690008052FB681A641EE0FB681B6C43F48012E6
:1016A000FB681A64FB681B68B3F1A04F04D0FB68A9
:1016B0001B68374A93420ED14FF0A043DB6803F01A
:1016C0000073002B07D0FB681B6C23F4405343F4DA
:1016D0008052FB681A64FB681B6C03F48053B3F5FB
:1016E000805F06D1FB685B6C23F00602FB685A64DE
:1016F00002E0FB6800225A64FB68002283F83C2069
:10170000FB689B6B234A9A62FB689B6B224ADA62F6
:10171000FB689B6B214A1A63FB681B681C221A60DA
:10172000FB681B685A68FB681B6842F010025A602D
:10173000FB681B68DA68FB681B6842F00102DA602C
:10174000FB68986BFB681B6840331946BA687B6876
:1017500001F057F8FB681B689A68FB681B6842F049
:1017600004029A600DE0FB68002283F83C2008E048
:101770000123FB75FB68002283F83C2001E0022373
:10178000FB75FB7D18461837BD4680BD0003005031
:1017900000010050ED2200086723000883230008A1
:1017A00080B588B000AF78600023FB610023BB6187
:1017B00000237B617B681B681B683B617B681B683F
:1017C0005B68FB603B6903F00403002B04D0FB68FB
:1017D00003F00403002B09D13B6903F00803002B3D
:1017E00076D0FB6803F00803002B71D07B681B6C7C
:1017F00003F01003002B05D17B681B6C43F40072CF
:101800007B681A64824B9B6803F01F03002B10D087
:101810007F4B9B6803F01F03052B0AD07C4B9B6812
:1018200003F01F03092B04D07B681B68B3F1A04FA2
:1018300004D17B681B68DB68BB6103E04FF0A04309
:10184000DB68BB617B681B68DB6803F44063002BCB
:1018500037D1BB6903F40053002B32D13B6903F04D
:101860000803002B2DD07B681B689B6803F00403E2
:10187000002B1AD17B681B685A687B681B6822F0B2
:101880000C025A607B681B6C23F480727B681A64BC
:101890007B681B6C03F48053002B12D17B681B6C9C
:1018A00043F001027B681A640BE07B681B6C43F019
:1018B00010027B681A647B685B6C43F001027B68F2
:1018C0005A647868FEF780FD7B681B680C221A60FA
:1018D0003B6903F02003002B04D0FB6803F02003D6
:1018E000002B0BD13B6903F04003002B00F0A580D7
:1018F000FB6803F04003002B00F09F807B681B6CAB
:1019000043F400527B681A64414B9B6803F01F0349
:10191000002B10D03E4B9B6803F01F03052B0AD011
:101920003B4B9B6803F01F03092B04D07B681B68AB
:10193000B3F1A04F04D17B681B68DB68BB6103E097
:101940004FF0A043DB68BB617B681B68DB6C03F076
:10195000C003002B6AD1BB6903F00073002B0BD0CE
:101960007B681B68DB6803F44063002B5ED1BB69B6
:1019700003F40053002B59D13B6903F04003002BC3
:1019800054D0234B9B6803F01F03002B10D0204B37
:101990009B6803F01F03062B0AD01D4B9B6803F0C6
:1019A0001F03072B04D07B681B68B3F1A04F04D141
:1019B0007B681B68DB687B6103E04FF0A043DB685A
:1019C0007B617B6903F40013002B2FD17B681B68BC
:1019D0009B6803F00803002B1CD17B681B685A68C6
:1019E0007B681B6822F060025A607B681B6C23F4E2
:1019F00080527B681A647B681B6C03F48073002B35
:101A000014D17B681B6C43F001027B681A640DE003
:101A1000000300507B681B6C43F010027B681A6463
:101A20007B685B6C43F001027B685A64786800F065
:101A3000B1F87B681B6860221A603B6903F0800381
:101A4000002B11D0FB6803F08003002B0CD07B68C7
:101A50001B6C43F480327B681A647868FFF720FCC3
:101A60007B681B6880221A603B6903F48073002B3B
:101A700012D0FB6803F48073002B0DD07B681B6CC5
:101A800043F400327B681A64786800F097F87B684A
:101A90001B684FF480721A603B6903F40073002BDB
:101AA00012D0FB6803F40073002B0DD07B681B6C15
:101AB00043F480227B681A64786800F089F87B68B8
:101AC0001B684FF400721A603B6903F01003002B8F
:101AD0003BD0FB6803F01003002B36D07B685B6BB8
:101AE000012B02D10123FB6119E0294BBB60BB68CC
:101AF0009B6803F01F03002B09D17B681B68DB6820
:101B000003F00103012B0AD10123FB6107E0BB684D
:101B10009B6803F44043002B01D00123FB61FB6968
:101B2000012B0ED17B681B6C43F480627B681A64C6
:101B30007B685B6C43F002027B685A647868FFF74D
:101B4000B9FB7B681B6810221A603B6903F4806351
:101B5000002B18D0FB6803F48063002B13D07B6844
:101B60001B6C43F480427B681A647B685B6C43F0B7
:101B700008027B685A647B681B684FF480621A60B5
:101B8000786800F011F800BF2037BD4680BD00BF67
:101B90000003005080B483B000AF786000BF0C3702
:101BA000BD465DF8047B704780B483B000AF7860B9
:101BB00000BF0C37BD465DF8047B704780B483B02E
:101BC00000AF786000BF0C37BD465DF8047B7047FE
:101BD00080B483B000AF786000BF0C37BD465DF8BD
:101BE000047B704780B49BB000AF786039600023FD
:101BF00087F867300023BB607B6893F83C30012B8B
:101C000001D10223A1E27B68012283F83C207B689A
:101C10001B689B6803F00403002B40F085823B683F
:101C20005B68042B1CD87B681B68196B3B685A687F
:101C300013465B0013445B001A461F239340DB43AB
:101C400019403B6818683B685A6813465B001344A8
:101C50005B0000FA03F27B681B680A431A6363E0C7
:101C60003B685B68092B1ED87B681B68596B3B6817
:101C70005A6813465B0013445B001E3B1F2202FAA6
:101C800003F3DB4319403B6818683B685A68134606
:101C90005B0013445B001E3B00FA03F27B681B6889
:101CA0000A435A6340E03B685B680E2B1ED87B6892
:101CB0001B68996B3B685A6813465B0013445B00D2
:101CC0003C3B1F2202FA03F3DB4319403B681868D0
:101CD0003B685A6813465B0013445B003C3B00FAC8
:101CE00003F27B681B680A439A631DE07B681B68EC
:101CF000D96B3B685A6813465B0013445B005A3B40
:101D00001F2202FA03F3DB4319403B6818683B6863
:101D10005A6813465B0013445B005A3B00FA03F217
:101D20007B681B680A43DA637B681B689B6803F067
:101D30000C03002B40F0E5803B681B68092B1CD985
:101D40007B681B6899693B681A6813465B001344FB
:101D50001E3B072202FA03F3DB4319403B689868F5
:101D60003B681A6813465B0013441E3B00FA03F2FB
:101D70007B681B680A439A6119E07B681B68596994
:101D80003B681A6813465B001344072202FA03F308
:101D9000DB4319403B6898683B681A6813465B0050
:101DA000134400FA03F27B681B680A435A613B68DC
:101DB0005A697B681B68DB68DB0803F003035B0080
:101DC00002FA03F33B663B681B69013B032B4FD8C8
:101DD00001A252F823F000BFE91D00080B1E000805
:101DE0002D1E00084F1E00087B681B681A6E9C4B56
:101DF00013403A68126891063A6E0A431A437B68A8
:101E00001B6842F000421A667BE07B681B685A6ED2
:101E1000934B13403A68126891063A6E0A431A438C
:101E20007B681B6842F000425A666AE07B681B6868
:101E30009A6E8B4B13403A68126891063A6E0A43C9
:101E40001A437B681B6842F000429A6659E07B683F
:101E50001B68DA6E824B13403A68126891063A6E3C
:101E60000A431A437B681B6842F00042DA6648E086
:101E70007B681B681B6E03F0F8423B681B689B067F
:101E80009A4207D17B681B681A6E7B681B6822F038
:101E900000421A667B681B685B6E03F0F8423B6881
:101EA0001B689B069A4207D17B681B685A6E7B6849
:101EB0001B6822F000425A667B681B689B6E03F029
:101EC000F8423B681B689B069A4207D17B681B68F7
:101ED0009A6E7B681B6822F000429A667B681B68DA
:101EE000DB6E03F0F8423B681B689B069A4207D101
:101EF0007B681B68DA6E7B681B6822F00042DA663A
:101F000000BF7B681B689B6803F00303012B08D1AB
:101F10007B681B681B6803F00103012B01D10123BF
:101F200000E00023002B40F00A813B68DB68012BB6
:101F30000FD07B681B68D3F8B0103B681B68012288
:101F400002FA03F3DA437B681B680A40C3F8B02047
:101F500049E07B681B68D3F8B0103B681B6801221E
:101F60009A407B681B680A43C3F8B0203B681B6833
:101F7000092B1CD97B681B6899693B681A68134652
:101F80005B0013441B3B072202FA03F3DB431940B7
:101F90003B6898683B681A6813465B0013441B3B18
:101FA00000FA03F27B681B680A439A611BE07B68B6
:101FB0001B6859693B681B685A1C13465B00134435
:101FC000072202FA03F3DB4319403B6898683B6839
:101FD0001B685A1C13465B00134400FA03F27B682B
:101FE0001B680A435A611F4BFB653B681B68102B3B
:101FF00005D1FB6D9B6803F40003002B15D03B68F3
:102000001B68112B05D1FB6D9B6803F08073002BBF
:102010000BD03B681B68122B40F09180FB6D9B68D6
:1020200003F48003002B40F08A807B681B68B3F1C7
:10203000A04F02D10C4BFB6002E04FF0A043FB60CD
:102040007B681B689B6803F00303012B0ED17B6840
:102050001B681B6803F00103012B07D1012306E075
:1020600000F0FF8300030050000100500023002B0C
:1020700050D1FB68002B10D0FB689B6803F0030372
:10208000012B07D1FB681B6803F00103012B01D171
:10209000012300E00023002B3CD13B681B68102B80
:1020A0001DD17B681B68B3F1A04F18D1FB6D9B68F5
:1020B00043F40002FB6D9A60274B1B68274AA2FB82
:1020C00003239A0C13469B0013445B00BB6002E0A1
:1020D000BB68013BBB60BB68002BF9D12EE03B68BD
:1020E0001B68112B0BD17B681B68B3F1A04F06D185
:1020F000FB6D9B6843F08072FB6D9A601EE03B684D
:102100001B68122B1AD1FB6D9B6843F48002FB6D98
:102110009A6013E07B681B6C43F020027B681A64B2
:10212000012387F867300AE07B681B6C43F02002CC
:102130007B681A64012387F8673000E000BF7B6882
:10214000002283F83C2097F8673018466C37BD466C
:102150005DF8047B704700BF0400002083DE1B4352
:1021600080B499B000AF78603960002387F85F30A1
:102170007B681B68B3F1A04F02D15A4BBB6002E0F1
:102180004FF0A043BB60BB68002B01D10123A2E04C
:102190007B6893F83C30012B01D102239BE07B68E4
:1021A000012283F83C207B681B689B6803F00403D2
:1021B000002B7FD1BB689B6803F00403002B79D10F
:1021C000494BBB653B681B68002B40D0BB6D9B68CF
:1021D00023F460423B6859687B6893F830305B03B6
:1021E0000B431A43BB6D9A607B681B689B6803F0C6
:1021F0000303012B08D17B681B681B6803F00103F4
:10220000012B01D1012300E00023002B5CD1BB682E
:102210009B6803F00303012B07D1BB681B6803F025
:102220000103012B01D1012300E00023002B4BD13E
:10223000BB6D9B6823F4716323F00F033A68116848
:102240003A6892680A431A43BB6D9A603CE0BB6DE2
:102250009B6823F46042BB6D9A607B681B689B6837
:1022600003F00303012B08D17B681B681B6803F094
:102270000103012B01D1012300E00023002B23D116
:10228000BB689B6803F00303012B07D1BB681B6885
:1022900003F00103012B01D1012300E00023002BF7
:1022A00012D1BB6D9B6823F4716323F00F03BA6DE9
:1022B000936009E07B681B6C43F020027B681A6422
:1022C000012387F85F3000E000BF7B68002283F8BD
:1022D0003C2097F85F3018466437BD465DF8047BB4
:1022E000704700BF000100500003005080B584B06B
:1022F00000AF78607B685B6AFB60FB681B6C03F077
:102300005003002B26D1FB681B6C43F40072FB6862
:102310001A64FB681B68DB6803F44063002B15D16B
:10232000FB685B7E002B11D1FB681B6C23F4807271
:10233000FB681A64FB681B6C03F48053002B05D107
:10234000FB681B6C43F00102FB681A64F868FEF737
:102350003BF804E0FB689B6B1B6B7868984700BFF9
:102360001037BD4680BD80B584B000AF78607B6813
:102370005B6AFB60F868FEF789FF00BF1037BD4657
:1023800080BD80B584B000AF78607B685B6AFB601D
:10239000FB681B6C43F04002FB681A64FB685B6CD3
:1023A00043F00402FB685A64F868FEF783FF00BF3D
:1023B0001037BD4680BD000080B584B000AF7860A6
:1023C0000023FB607B681B689B6803F00303012B01
:1023D00008D17B681B681B6803F00103012B01D146
:1023E000012300E00023002B43D17B681B689A681F
:1023F000224B1340002B0DD07B681B6C43F0100266
:102400007B681A647B685B6C43F001027B685A64EA
:1024100001232FE07B681B689A687B681B6842F089
:1024200001029A60FEF726FFF8601BE0FEF722FF2C
:102430000246FB68D31A022B14D97B681B681B6801
:1024400003F00103012B0DD07B681B6C43F01002DD
:102450007B681A647B685B6C43F001027B685A649A
:10246000012307E07B681B681B6803F00103012B55
:10247000DCD1002318461037BD4680BD3F000080E8
:1024800080B584B000AF78600023FB607B681B6878
:102490009B6803F00303012B08D17B681B681B6852
:1024A00003F00103012B01D1012300E00023002BE5
:1024B00047D07B681B689B6803F00D03012B0FD18D
:1024C0007B681B689A687B681B6842F002029A600E
:1024D0007B681B6803221A60FEF7CCFEF86029E0D7
:1024E0007B681B6C43F010027B681A647B685B6C32
:1024F00043F001027B685A64012323E0FEF7BAFE31
:102500000246FB68D31A022B14D97B681B689B68B0
:1025100003F00103012B0DD17B681B6C43F010020B
:102520007B681A647B685B6C43F001027B685A64C9
:10253000012307E07B681B689B6803F00103012B04
:10254000DCD0002318461037BD4680BD80B485B06E
:1025500000AF78607B6803F00703FB600C4BDB681F
:10256000BB60BA684FF6FF031340BB60FB681A02FA
:10257000BB68134343F0BF6343F40033BB60044ABA
:10258000BB68D36000BF1437BD465DF8047B70475D
:1025900000ED00E080B400AF044BDB681B0A03F0E1
:1025A00007031846BD465DF8047B704700ED00E068
:1025B00080B483B000AF0346FB7197F90730002B5E
:1025C0000BDBFB7903F01F02074997F907305B0922
:1025D000012000FA02F241F8232000BF0C37BD466B
:1025E0005DF8047B704700BF00E100E080B483B079
:1025F00000AF0346FB7197F90730002B12DBFB7924
:1026000003F01F020A4997F907305B09012000FA1D
:1026100002F2203341F82320BFF34F8F00BFBFF3F6
:102620006F8F00BF00BF0C37BD465DF8047B70475D
:1026300000E100E080B483B000AF03463960FB7175
:1026400097F90730002B0ADB3B68DAB20C4997F99F
:1026500007301201D2B20B4483F800230AE03B6832
:10266000DAB20849FB7903F00F03043B1201D2B23E
:102670000B441A7600BF0C37BD465DF8047B7047EB
:1026800000E100E000ED00E080B489B000AFF86048
:10269000B9607A60FB6803F00703FB61FB69C3F173
:1026A0000703042B28BF0423BB61FB690433062BFB
:1026B00002D9FB69033B00E000237B614FF0FF324E
:1026C000BB6902FA03F3DA43BB681A407B699A409C
:1026D0004FF0FF317B6901FA03F3D9437B680B406C
:1026E000134318462437BD465DF8047B704780B518
:1026F00082B000AF78607868FFF728FF00BF083726
:10270000BD4680BD80B586B000AF0346B9607A6033
:10271000FB7300237B61FFF73DFF78617A68B9683E
:102720007869FFF7B1FF024697F90F301146184656
:10273000FFF780FF00BF1837BD4680BD80B582B06F
:1027400000AF0346FB7197F907301846FFF730FFDB
:1027500000BF0837BD4680BD80B582B000AF0346DC
:10276000FB7197F907301846FFF740FF00BF0837A5
:10277000BD4680BD80B584B000AF78600023FB60AB
:102780007B68002B01D1012337E07B68022283F8AC
:1027900021207B681B681B68FB60FB6823F47F5368
:1027A00023F03003FB607B685A687B689B681A43A0
:1027B0007B68DB681A437B681B691A437B685B692B
:1027C0001A437B689B691A437B68DB691343FA6889
:1027D0001343FB607B681B68FA681A60786800F036
:1027E0008BF97B6800229A637B68012283F82120A1
:1027F0007B68002283F82020002318461037BD464E
:1028000080BD80B586B000AFF860B9607A603B608B
:102810000023FB75FB6893F82030012B01D10223C4
:102820004AE0FB68012283F82020FB6893F82130FE
:10283000012B3AD1FB68022283F82120FB68002299
:102840009A63FB681B681A68FB681B6822F0010228
:102850001A603B687A68B968F86800F01FF9FB688D
:10286000DB6A002B08D0FB681B681A68FB681B68D2
:1028700042F00E021A600FE0FB681B681A68FB68E2
:102880001B6842F00A021A60FB681B681A68FB6842
:102890001B6822F004021A60FB681B681A68FB6858
:1028A0001B6842F001021A6005E0FB68002283F811
:1028B00020200223FB75FB7D18461837BD4680BDDE
:1028C00080B584B000AF78600023FB737B6893F819
:1028D0002130022B05D07B6804229A630123FB730D
:1028E00027E07B681B681A687B681B6822F00E0271
:1028F0001A607B681B681A687B681B6822F00102FB
:102900001A607B681A6C7B68DB6B012101FA02F2AA
:102910005A607B68012283F821207B68002283F8BB
:1029200020207B685B6B002B03D07B685B6B786837
:102930009847FB7B18461037BD4680BD80B584B0F4
:1029400000AF78607B68DB6B1B68FB607B681B6893
:102950001B68BB607B681B6C04229A40FB681340B9
:10296000002B24D0BB6803F00403002B1FD07B682E
:102970001B681B6803F02003002B07D17B681B68D2
:102980001A687B681B6822F004021A607B681A6C64
:102990007B68DB6B042101FA02F25A607B68DB6A18
:1029A000002B6AD07B68DB6A7868984765E07B68B3
:1029B0001B6C02229A40FB681340002B2CD0BB6892
:1029C00003F00203002B27D07B681B681B6803F011
:1029D0002003002B0BD17B681B681A687B681B687F
:1029E00022F00A021A607B68012283F821207B68AA
:1029F0001A6C7B68DB6B022101FA02F25A607B6879
:102A0000002283F820207B689B6A002B35D07B68EE
:102A10009B6A7868984730E07B681B6C08229A4074
:102A2000FB681340002B28D0BB6803F00803002B81
:102A300023D07B681B681A687B681B6822F00E0233
:102A40001A607B681A6C7B68DB6B012101FA02F269
:102A50005A607B6801229A637B68012283F82120F7
:102A60007B68002283F820207B681B6B002B04D03E
:102A70007B681B6B78689847FFE700BF1037BD463F
:102A800080BD80B483B000AF78607B6893F821305C
:102A900018460C37BD465DF8047B704780B485B09E
:102AA00000AFF860B9607A603B60FB681A6CFB6845
:102AB000DB6B012101FA02F25A60FB681B683A687D
:102AC0005A60FB685B68102B08D1FB681B687A684A
:102AD0009A60FB681B68BA68DA6007E0FB681B68ED
:102AE000BA689A60FB681B687A68DA6000BF1437BE
:102AF000BD465DF8047B704780B483B000AF78605A
:102B00007B681B681A46094B1344094AA2FB03233E
:102B10001B099A007B681A647B68064ADA6300BF67
:102B20000C37BD465DF8047B704700BFF8FFFDBF62
:102B3000CDCCCCCC0000024080B487B000AF786030
:102B4000396000237B614EE13B681A6801217B6993
:102B500001FA03F31340FB60FB68002B00F0408197
:102B60003B685B6803F00303012B05D03B685B689F
:102B700003F00303022B30D17B689B683B617B69C8
:102B80005B00032202FA03F3DB433A6913403B6123
:102B90003B68DA687B695B0002FA03F33A69134326
:102BA0003B617B683A699A607B685B683B610122A4
:102BB0007B6902FA03F3DB433A6913403B613B68EC
:102BC0005B681B0903F001027B6902FA03F33A69AF
:102BD00013433B617B683A695A603B685B6803F06A
:102BE0000303032B17D07B68DB683B617B695B00C9
:102BF000032202FA03F3DB433A6913403B613B686B
:102C00009A687B695B0002FA03F33A6913433B61FC
:102C10007B683A69DA603B685B6803F00303022B68
:102C200023D17B69DA087B68083253F822303B6194
:102C30007B6903F007039B000F2202FA03F3DB43D7
:102C40003A6913403B613B681A697B6903F00703EB
:102C50009B0002FA03F33A6913433B617B69DA088C
:102C60007B680832396943F822107B681B683B6136
:102C70007B695B00032202FA03F3DB433A691340EA
:102C80003B613B685B6803F003027B695B0002FA0F
:102C900003F33A6913433B617B683A691A603B6806
:102CA0005B6803F44033002B00F09A80554B9B691E
:102CB000544A43F001039361524B9B6903F00103B3
:102CC000BB60BB68504A7B699B08023352F82330D3
:102CD0003B617B6903F003039B000F2202FA03F3BD
:102CE000DB433A6913403B617B68B3F1904F13D0EB
:102CF0007B68464A93420DD07B68454A934207D091
:102D00007B68444A934201D1032306E0052304E093
:102D1000022302E0012300E000237A6902F00302AB
:102D2000920093403A6913433B6137497B699B08A2
:102D300002333A6941F82320374B9B683B61FB68BB
:102D4000DB433A6913403B613B685B6803F48013E3
:102D5000002B03D03A69FB6813433B612E4A3B6961
:102D600093602D4BDB683B61FB68DB433A691340A2
:102D70003B613B685B6803F40013002B03D03A69A6
:102D8000FB6813433B61244A3B69D360224B5B6879
:102D90003B61FB68DB433A6913403B613B685B681E
:102DA00003F40033002B03D03A69FB6813433B6103
:102DB000194A3B695360184B1B683B61FB68DB4356
:102DC0003A6913403B613B685B6803F48033002B36
:102DD00003D03A69FB6813433B610F4A3B691360B8
:102DE0007B6901337B613B681A687B6922FA03F3D4
:102DF000002B7FF4A9AE00BF00BF1C37BD465DF8B5
:102E0000047B7047001002400000014000040048AD
:102E100000080048000C00480004014080B487B05E
:102E200000AF7860396000237B61B2E001227B69EA
:102E300002FA03F33A6813403B613B69002B00F050
:102E4000A5805B4A7B699B08023352F82330FB6004
:102E50007B6903F003039B000F2202FA03F3FA6875
:102E60001340FB607B68B3F1904F13D07B68514AED
:102E700093420DD07B68504A934207D07B684F4AFB
:102E8000934201D1032306E0052304E0022302E07C
:102E9000012300E000237A6902F0030292009340CC
:102EA000FA689A4232D1464B1A683B69DB4344497F
:102EB00013400B60424B5A683B69DB434049134067
:102EC0004B603F4BDA683B69DB433D491340CB60C5
:102ED0003B4B9A683B69DB43394913408B607B6904
:102EE00003F003039B000F2202FA03F3FB60304A56
:102EF0007B699B08023352F82310FB68DA432C48A5
:102F00007B699B080A40023340F823207B681A68DB
:102F10007B695B00032101FA03F3DB431A407B6802
:102F20001A607B69DA087B68083253F822107B69E3
:102F300003F007039B000F2202FA03F3DB437A69D5
:102F4000D20819407B68083243F822107B68DA689F
:102F50007B695B00032101FA03F3DB431A407B68C2
:102F6000DA607B685A6801217B6901FA03F3DB436D
:102F70001A407B685A607B689A687B695B00032112
:102F800001FA03F3DB431A407B689A607B690133E3
:102F90007B613A687B6922FA03F3002B7FF446AF2A
:102FA00000BF00BF1C37BD465DF8047B704700BF03
:102FB000000001400004004800080048000C0048E0
:102FC0000004014080B483B000AF78600B467B8082
:102FD00013467B707B78002B03D07A887B689A61DC
:102FE00002E07A887B689A6200BF0C37BD465DF8C4
:102FF000047B704780B485B000AF78600B467B805F
:103000007B685B69FB607A88FB6813401A04FB6885
:10301000D9437B880B401A437B689A6100BF143701
:10302000BD465DF8047B704780B582B000AF786024
:103030007B68002B01D101238DE07B6893F8413040
:10304000DBB2002B06D17B68002283F84020786831
:10305000FDF7F4FE7B68242283F841207B681B681F
:103060001A687B681B6822F001021A607B685A6844
:103070007B681B6822F070621A617B681B689A6823
:103080007B681B6822F400429A607B68DB68012B36
:1030900007D17B689A687B681B6842F400429A609B
:1030A00006E07B689A687B681B6842F404429A6079
:1030B0007B68DB68022B08D17B681B685A687B68D9
:1030C0001B6842F400625A6007E07B681B685A681C
:1030D0007B681B6822F400625A607B681B685B682F
:1030E0007A68126843F0007343F4004353607B68CE
:1030F0001B68DA687B681B6822F40042DA607B6830
:103100001A697B685B6942EA03017B689B691A0262
:103110007B681B680A43DA607B68D9697B681A6A36
:103120007B681B680A431A607B681B681A687B68A7
:103130001B6842F001021A607B6800225A647B68B7
:10314000202283F841207B6800221A637B680022DA
:1031500083F84220002318460837BD4680BD80B55D
:1031600082B000AF78607B68002B01D1012321E0A1
:103170007B68242283F841207B681B681A687B687F
:103180001B6822F001021A607868FDF7C9FE7B68AF
:1031900000225A647B68002283F841207B68002269
:1031A0001A637B68002283F842207B68002283F840
:1031B0004020002318460837BD4680BD80B584B046
:1031C00000AFF860B9601346FB80FB6893F84130AC
:1031D000DBB2202B56D1FB6893F84030012B01D194
:1031E000022350E0FB68012283F84020FB68212283
:1031F00083F84120FB68202283F84220FB680022EC
:103200005A64FB681B685A68FB681B6822F400421A
:103210005A60FB68BA685A62FB68FA885A85FB688C
:103220005B8D9AB2FB681A85FB68194ADA62FB6803
:10323000184A5A63FB681B6AB3F5003F17D1FB6855
:103240005B6A1A78FB681B689A62FB685B6A5A1CA7
:10325000FB685A62FB685B8D9BB2013B9AB2FB68CC
:103260005A85FB681B8D013B9AB2FB681A85FB6887
:10327000002283F8402048F20101F86801F052FA78
:10328000002300E0022318461037BD4680BD00BF72
:103290000000FFFFB734000880B584B000AFF860CD
:1032A000B9601346FB80FB6893F84130DBB2202BFA
:1032B00039D1FB6893F84030012B01D1022333E070
:1032C000FB68012283F84020FB68222283F841201A
:1032D000FB68202283F84220FB6800225A64FB68C6
:1032E0001B685A68FB681B6822F400425A60FB683E
:1032F000BA685A62FB68FA885A85FB685B8D9AB295
:10330000FB681A85FB680A4ADA62FB68094A5A6355
:10331000FB68002283F8402048F20201F86801F0BF
:1033200001FA002300E0022318461037BD4680BD95
:103330000000FFFFB734000880B584B000AF7860AC
:103340007B681B689B69FB607B681B681B68BB60B4
:103350007B685B6B002B05D07B685B6BBA68F96898
:103360007868984700BF1037BD4680BD80B586B0ED
:1033700000AF78607B681B689B697B617B681B681A
:103380001B683B617B6903F48073002B0FD03B69A2
:1033900003F08003002B0AD07B685B6C43F00102D2
:1033A0007B685A647B681B684FF48072DA617B69C2
:1033B00003F48063002B0FD03B6903F08003002BE4
:1033C0000AD07B685B6C43F008027B685A647B68B8
:1033D0001B684FF48062DA617B6903F40073002B91
:1033E0000FD03B6903F08003002B0AD07B685B6C35
:1033F00043F002027B685A647B681B684FF40072DA
:10340000DA617B685B6CFB60FB6803F00B03002BED
:1034100003D0F968786800F0F9FF00BF1837BD469F
:1034200080BD80B483B000AF786000BF0C37BD466C
:103430005DF8047B704780B483B000AF786000BF54
:103440000C37BD465DF8047B704780B483B000AF95
:1034500078600B46FB7013463B8000BF0C37BD46BF
:103460005DF8047B704780B483B000AF786000BF24
:103470000C37BD465DF8047B704780B483B000AF65
:10348000786000BF0C37BD465DF8047B704780B4A0
:1034900083B000AF786000BF0C37BD465DF8047B99
:1034A000704780B483B000AF786000BF0C37BD4672
:1034B0005DF8047B704780B586B000AFF860B960F6
:1034C0007A60FB68DB6A7B61BB683B61FB6893F8F1
:1034D0004030012B01D10223E2E0FB68012283F896
:1034E00040203B6903F02003002B09D07B6803F0E8
:1034F0002003002B04D03969F86800F0CFFDCAE042
:103500003B6903F01003002B4BD07B6803F01003E2
:10351000002B46D0FB685B8D9BB2002B28D1FB684B
:1035200093F84130DBB2282B08D17B69B3F1007FDF
:1035300004D13969F86800F015FF31E0FB6893F8B1
:103540004130DBB2292B0ED17B6913F5803F0AD0C5
:10355000FB681B681022DA61F86801F06EF8F86801
:1035600000F078FC1CE0FB681B681022DA618FE039
:10357000FB681B681022DA61FB685B6C43F0040295
:10358000FB685A647B69002B03D07B69B3F1807FB1
:103590007ED1FB685B6C1946F86800F037FF77E076
:1035A00076E03B6903F00403002B2FD07B6803F027
:1035B0000403002B2AD0FB685B8D9BB2002B18D034
:1035C000FB681B685A6AFB685B6AD2B21A70FB68B8
:1035D0005B6A5A1CFB685A62FB681B8D013B9AB2FE
:1035E000FB681A85FB685B8D9BB2013B9AB2FB6856
:1035F0005A85FB685B8D9BB2002B4BD17B6913F521
:10360000803F47D0F86800F025FC43E03B6903F0B9
:103610000803002B09D07B6803F00803002B04D0BB
:103620003969F86800F055FB35E03B6903F00203A7
:10363000002B30D07B6803F00203002B2BD0FB68FB
:103640005B8D9BB2002B18D0FB685B6A1A78FB6815
:103650001B689A62FB685B6A5A1CFB685A62FB68CB
:103660005B8D9BB2013B9AB2FB685A85FB681B8D50
:10367000013B9AB2FB681A850DE07B69B3F1807F4C
:1036800002D07B69002B06D1F86800F0E3FB02E072
:1036900000BF00E000BFFB68002283F84020002349
:1036A00018461837BD4680BD80B588B002AFF860B7
:1036B000B9607A60FB6893F84030012B01D1022396
:1036C000E7E0FB68012283F84020BB6803F01003A9
:1036D000002B16D07B6803F01003002B11D0FB6881
:1036E0001B681022DA61FB685B6C43F00402FB6824
:1036F0005A642021F86801F015F8F86800F09DFF81
:10370000C2E0BB6803F08003002B7FD07B6803F02E
:103710004003002B7AD0FB681B681A68FB681B68A3
:1037200022F040021A60FB685B8D9BB2002B5CD0DC
:10373000FB681B685B689BB2C3F309037B82FB6871
:103740005B8D9BB2FF2B14D9FB681B689B691B0C1C
:10375000DBB203F00103DBB2012B03D1FB680122D2
:103760001A8502E0FB68FF221A854FF080737B61A7
:1037700010E0FB685B8D9AB2FB681A85FB68DB6A18
:1037800013F5803F03D0FB68DB6A7B6102E04FF0FA
:1037900000737B61FB681B8DDAB2798A002300938A
:1037A0007B69F86800F08CFFFB685B8D9AB2FB6860
:1037B0001B8DD31A9AB2FB685A85FB6893F8413087
:1037C000DBB2222B08D1FB681B681A68FB681B68F8
:1037D00042F400421A6057E0FB681B681A68FB68F5
:1037E0001B6842F480421A604EE0FB681B685B680D
:1037F00003F00073B3F1007F03D0F86800F0EDFA36
:1038000042E04021F86800F001FE3DE0BB6803F0B3
:103810004003002B28D07B6803F04003002B23D00B
:10382000FB685B8D9BB2002B19D1FB681B685B6842
:1038300003F00073B3F1007F25D0FB68DB6A13F55A
:10384000803F08D1FB681B685A68FB681B6842F41C
:1038500080425A6017E0F86800F0BFFA13E0402198
:10386000F86800F0D3FD0EE0BB6803F02003002BE6
:103870000AD07B6803F02003002B05D0B968F868F4
:1038800000F044FB00E000BFFB68002283F840200A
:10389000002318461837BD4680BD000080B588B0AB
:1038A00002AFF860B9607A60904B7B61FB6893F877
:1038B0004030012B01D102232FE1FB68012283F864
:1038C0004020BB6803F01003002B16D07B6803F088
:1038D0001003002B11D0FB681B681022DA61FB6813
:1038E0005B6C43F00402FB685A642021F86800F026
:1038F00019FFF86800F0A1FE0AE1BB6803F00203BB
:10390000002B0ED07B6803F00203002B09D0FB686C
:103910001B68FA68126D9A62FB684FF0FF321A65F5
:10392000F6E0BB6803F08003002B6DD07B6803F0EA
:103930004003002B68D00121F86800F077FF1021C8
:10394000F86800F0EFFEFB685B8D9BB2002B56D051
:10395000FB685B8D9BB2FF2B1ED9FB681B689B69C4
:103960001B0CDBB203F00103DBB2012B03D1FB68BC
:1039700001221A8502E0FB68FF221A85FB68DB6CD6
:1039800099B2FB681B8DDAB2002300934FF080736D
:10399000F86800F095FE11E0FB685B8D9AB2FB6859
:1039A0001A85FB68DB6C99B2FB681B8DDAB20023C9
:1039B00000934FF00073F86800F082FEFB685B8DA7
:1039C0009AB2FB681B8DD31A9AB2FB685A85FB68C2
:1039D00093F84130DBB2222B08D1FB681B681A68D0
:1039E000FB681B6842F400421A6091E0FB681B68A8
:1039F0001A68FB681B6842F480421A6088E0402124
:103A0000F86800F003FD83E0BB6803F04003002B7F
:103A100070D07B6803F04003002B6BD00121F86865
:103A200000F004FF1021F86800F07CFEFB6893F8BA
:103A30004130DBB2222B01D12D4B7B61FB685B8DCA
:103A40009BB2FF2B1ED9FB681B689B691B0CDBB26A
:103A500003F00103DBB2012B03D1FB6801221A85BD
:103A600002E0FB68FF221A85FB68DB6C99B2FB68F9
:103A70001B8DDAB27B6900934FF08073F86800F019
:103A80001FFE11E0FB685B8D9AB2FB681A85FB682C
:103A9000DB6C99B2FB681B8DDAB27B6900934FF047
:103AA0000073F86800F00CFEFB685B8D9AB2FB684F
:103AB0001B8DD31A9AB2FB685A85FB6893F8413084
:103AC000DBB2222B08D1FB681B681A68FB681B68F5
:103AD00042F400421A601BE0FB681B681A68FB682E
:103AE0001B6842F480421A6012E000BF0020008090
:103AF00000240080BB6803F02003002B08D07B6803
:103B000003F02003002B03D0B968F86800F0FEF939
:103B1000FB68002283F84020002318461837BD4672
:103B200080BD00BF80B588B000AFF860B9607A6032
:103B3000FB68DB6ABB610023FB61FB6893F84030E4
:103B4000012B01D10223C0E0FB68012283F8402051
:103B5000BB6803F02003002B09D07B6803F020032F
:103B6000002B04D0B968F86800F098FAA8E0BB68A8
:103B700003F01003002B00F095807B6803F0100326
:103B8000002B00F08F807B6803F48043002B04D16E
:103B90007B6803F40043002B7DD0FB68DB6B002BBC
:103BA0000CD07B6803F40043002B07D0FB68DB6B71
:103BB0001B685B68002B01D10123FB61FB689B6BD9
:103BC000002B0CD07B6803F48043002B07D0FB68EC
:103BD0009B6B1B685B68002B01D10123FB61FB69B8
:103BE000012B28D1FB6893F84130DBB2282B08D198
:103BF000BB69B3F1007F04D1B968F86800F0B2FB8B
:103C000048E0FB6893F84130DBB2292B0ED1BB6949
:103C100013F5803F0AD0FB681B681022DA61F86850
:103C200000F00BFDF86800F015F933E0FB681B6845
:103C30001022DA6134E0FB681B681022DA61FB684D
:103C40005B6C43F00402FB685A64FB6893F84130F4
:103C5000FB75BB69002B03D0BB69B3F1807F1FD11B
:103C6000FB7D212B02D0FB7D292B03D1FB68212278
:103C70001A6308E0FB7D222B02D0FB7D2A2B02D1A8
:103C8000FB6822221A63FB685B6C1946F86800F037
:103C9000BDFB05E004E0FB681B681022DA610FE061
:103CA00000BF0DE0BB6803F00803002B08D07B6861
:103CB00003F00803002B03D0B968F86800F009F896
:103CC000FB68002283F84020002318462037BD46B9
:103CD00080BD80B584B000AF786039607B6893F8B0
:103CE0004130DBB203F02803282B6AD17B681B68C4
:103CF0009B691B0CDBB203F00103FB737B681B6841
:103D00009B691B0C9BB203F0FE03BB817B681B68A5
:103D10009B689BB2C3F309037B817B681B68DB68EC
:103D20009BB203F0FE033B817B68DB68022B38D13A
:103D30007B89DB099AB2BB8953409BB203F006032F
:103D4000002B1CD17B89BB817B689B6C5A1C7B68D8
:103D50009A647B689B6C022B3BD17B6800229A643F
:103D60007B681B680822DA617B68002283F84020A8
:103D7000BA89FB7B19467868FFF767FB29E03B8926
:103D8000BB814FF40041786800F050FD7B68002251
:103D900083F84020BA89FB7B19467868FFF755FB0A
:103DA00017E04FF40041786800F040FD7B68002286
:103DB00083F84020BA89FB7B19467868FFF745FBFA
:103DC00007E07B681B680822DA617B68002283F8C1
:103DD000402000BF1037BD4680BD80B582B000AF27
:103DE00078607B68002283F842207B6893F841303A
:103DF000DBB2212B15D17B68202283F841207B6820
:103E000011221A637B6800225A630121786800F04E
:103E10000DFD7B68002283F840207868FFF701FBE6
:103E200014E07B68202283F841207B6812221A6309
:103E30007B6800225A630221786800F0F7FC7B68F7
:103E4000002283F840207868FFF7F5FA00BF0837B2
:103E5000BD4680BD80B584B000AF78607B681B68CC
:103E60001B68FB607B68002283F84220FB6803F438
:103E70008043002B08D07B681B681A687B681B682E
:103E800022F480421A600CE0FB6803F40043002B2C
:103E900007D07B681B681A687B681B6822F40042A5
:103EA0001A607B6893F84130DBB2292B12D17B6812
:103EB000282283F841207B6821221A630121786837
:103EC00000F0B4FC7B68002283F840207868FCF79F
:103ED000ABFA17E07B6893F84130DBB22A2B11D1A3
:103EE0007B68282283F841207B6822221A63022102
:103EF000786800F09BFC7B68002283F8402078689B
:103F0000FCF782FA00BF1037BD4680BD80B586B091
:103F100000AF786039603B687B617B681B6820225A
:103F2000DA617B6893F84130DBB2212B07D10121A4
:103F3000786800F07BFC7B6811221A630CE07B68D8
:103F400093F84130DBB2222B06D10221786800F0D1
:103F50006DFC7B6812221A637B681B6859687B685A
:103F60001A684C4B0B4053607B6800225A637B6895
:103F7000494ADA627B6903F01003002B09D07B68A1
:103F80001B681022DA617B685B6C43F004027B687B
:103F90005A647B6893F84130DBB2602B0AD17B69AD
:103FA00003F00403002B05D07B681B685B6ADBB25F
:103FB000FB60FB68786800F040FB7B685B6C3B61F2
:103FC0007B6893F84130DBB2602B02D03B69002B59
:103FD00006D07B685B6C1946786800F017FA54E0ED
:103FE0007B6893F84130DBB2212B24D17B682022FF
:103FF00083F841207B6800221A637B6893F8423083
:10400000DBB2402B0BD17B68002283F842207B6817
:10401000002283F840207868FFF72FFA35E07B68AC
:10402000002283F842207B68002283F840207868D1
:10403000FFF7F7F929E07B6893F84130DBB2222BD8
:1040400023D17B68202283F841207B6800221A63F9
:104050007B6893F84230DBB2402B0BD17B680022A7
:1040600083F842207B68002283F840207868FFF7BD
:104070000EFA0AE07B68002283F842207B68002267
:1040800083F840207868FFF7D6F900BF1837BD469F
:1040900080BD00BF00E800FE0000FFFF80B586B0D5
:1040A00000AF786039607B681B681B683B613B68C8
:1040B0007B617B68DB6AFB607B6893F84130FB7255
:1040C0007B681B682022DA61FB7A212B02D0FB7A05
:1040D000292B08D148F20101786800F0A7FB7B6822
:1040E00021221A6319E0FB7A222B02D0FB7A2A2BB9
:1040F00008D148F20201786800F098FB7B68222220
:104100001A630AE0FB7A282B07D148F2030178688A
:1041100000F08CFB7B6800221A637B681B685A687E
:104120007B681B6842F400425A607B681B685968D0
:104130007B681A68894B0B405360786800F07DFA01
:104140003B6903F48043002B13D07B681B681A681B
:104150007B681B6822F480421A607B689B6B002B93
:104160001FD07B689B6B1B685B689AB27B685A8523
:1041700017E03B6903F40043002B12D07B681B68F7
:104180001A687B681B6822F400421A607B68DB6B4C
:10419000002B06D07B68DB6B1B685B689AB27B6880
:1041A0005A857B6903F00403002B20D07B6923F040
:1041B00004037B617B681B685A6A7B685B6AD2B2C6
:1041C0001A707B685B6A5A1C7B685A627B681B8D1D
:1041D000002B0CD07B681B8D013B9AB27B681A8543
:1041E0007B685B8D9BB2013B9AB27B685A857B688A
:1041F0005B8D9BB2002B05D07B685B6C43F00402A7
:104200007B685A647B6903F01003002B49D03B693B
:1042100003F01003002B44D07B685B8D9BB2002B16
:1042200028D17B6893F84130DBB2282B08D1FB689A
:10423000B3F1007F04D17969786800F093F830E039
:104240007B6893F84130DBB2292B0ED1FB6813F564
:10425000803F0AD07B681B681022DA61786800F022
:10426000ECF97868FFF7F6FD1BE07B681B6810220D
:10427000DA6116E07B681B681022DA617B685B6C90
:1042800043F004027B685A64FB68002B03D0FB6890
:10429000B3F1807F05D17B685B6C1946786800F0CC
:1042A000B5F87B68002283F842207B6800225A63BD
:1042B0007B685B6C002B10D07B685B6C1946786860
:1042C00000F0A4F87B6893F84130DBB2282B41D191
:1042D0007969786800F046F83CE07B68DB6A13F5A2
:1042E000803F14D07868FFF7B5FD7B681C4ADA621E
:1042F0007B68202283F841207B6800221A637B6858
:10430000002283F840207868FFF7ADF822E07B6850
:1043100093F84130DBB2222B0ED17B68202283F848
:1043200041207B6800221A637B68002283F84020CA
:104330007868FCF769F80DE07B68202283F841205B
:104340007B6800221A637B68002283F8402078682B
:10435000FCF76AF800BF1837BD4680BD00E800FED4
:104360000000FFFF80B582B000AF786039607B68E5
:10437000254ADA627B6800221A637B68202283F870
:1043800041207B68002283F842207B6800225A6328
:104390003B6803F00403002B22D07B681B685A6A39
:1043A0007B685B6AD2B21A707B685B6A5A1C7B6856
:1043B0005A627B681B8D002B12D07B681B8D013BE2
:1043C0009AB27B681A857B685B8D9BB2013B9AB27F
:1043D0007B685A857B685B6C43F004027B685A6497
:1043E00048F20301786800F021FA7B681B6810220C
:1043F000DA617B68002283F840207868FFF733F8A1
:1044000000BF0837BD4680BD0000FFFF80B584B007
:1044100000AF786039607B6893F84130FB737B684C
:10442000002283F842207B686D4ADA627B680022B2
:104430005A857B685A6C3B681A437B685A64FB7BDD
:10444000282B05D0FB7B292B02D0FB7B2A2B0BD101
:104450000321786800F0EAF97B68282283F841207C
:104460007B68604A5A6330E048F20301786800F0E4
:10447000DDF9786800F0E1F87B6893F84130DBB251
:10448000602B1FD07B68202283F841207B681B684B
:104490009B6903F02003202B14D17B681B689B6968
:1044A00003F01003102B09D17B681B681022DA611E
:1044B0007B685B6C43F004027B685A647B681B6812
:1044C0002022DA617B6800225A637B681B6BBB6029
:1044D0007B689B6B002B39D0BB68112B02D0BB686B
:1044E000212B33D17B681B681B6803F48043B3F531
:1044F000804F07D17B681B681A687B681B6822F4B1
:1045000080421A607B689B6B1846FEF7BAFA034636
:10451000012B17D07B689B6B334A5A637B68002260
:1045200083F840207B689B6B1846FEF7C9F9034669
:10453000002B4DD07B689B6B5B6B7A68926B10464F
:10454000984745E0786800F051F841E07B68DB6B04
:10455000002B39D0BB68122B02D0BB68222B33D181
:104560007B681B681B6803F40043B3F5004F07D159
:104570007B681B681A687B681B6822F400421A601B
:104580007B68DB6B1846FEF77CFA0346012B17D0DD
:104590007B68DB6B144A5A637B68002283F84020F7
:1045A0007B68DB6B1846FEF78BF90346002B11D0B6
:1045B0007B68DB6B5B6B7A68D26B1046984709E0CF
:1045C000786800F013F805E0786800F00FF802E072
:1045D00000BF00E000BF00BF1037BD4680BD00BF78
:1045E0000000FFFFB73400088346000880B582B0A2
:1045F00000AF78607B6893F84130DBB2602B0ED15E
:104600007B68202283F841207B6800221A637B6844
:10461000002283F840207868FEF743FF09E07B68BA
:1046200000221A637B68002283F840207868FBF739
:1046300011FF00BF0837BD4680BD80B483B000AF16
:1046400078607B681B689B6903F00203022B03D12F
:104650007B681B6800229A627B681B689B6903F079
:104660000103012B07D07B681B689A697B681B6874
:1046700042F001029A6100BF0C37BD465DF8047B31
:10468000704780B584B000AF78607B685B6AFB6080
:10469000FB689B6B002B03D0FB689B6B00225A636B
:1046A000FB68DB6B002B03D0FB68DB6B00225A63DB
:1046B000F868FFF79BFF00BF1037BD4680BD0000C4
:1046C00080B487B000AFF8607B600B467B811346F7
:1046D0007B727B89C3F309027B7A1B0403F47F039B
:1046E0001A437B681A433B6A134323F000437B6100
:1046F000FB681B685A683B6A5B0D03F48061084BDA
:104700000B43DB4302EA0301FB681B687A690A4337
:104710005A6000BF1C37BD465DF8047B704700BF80
:10472000FF63FF0380B485B000AF78600B467B80E9
:104730000023FB607B685B6B394A934232D07B6815
:104740005B6B384A93422DD07B685B6B364A934251
:1047500028D0B7F90230002B03DAFB6843F0B80326
:10476000FB607B8803F00103002B03D0FB6843F060
:10477000F203FB607B8803F00203002B03D0FB688D
:1047800043F0F403FB607B88102B03D1FB6843F0FC
:104790009003FB607B88202B33D1FB6843F0200320
:1047A000FB602EE0B7F90230002B03DAFB6843F020
:1047B000B803FB607B8803F00103002B03D0FB6888
:1047C00043F0F203FB607B8803F00203002B03D06D
:1047D000FB6843F0F403FB607B88102B03D1FB687C
:1047E00043F09003FB607B88202B03D1FB6843F0F0
:1047F0006003FB607B88402B03D1FB6843F04003E0
:10480000FB607B681B6819687B681B68FA680A4351
:104810001A6000BF1437BD465DF8047B704700BFC7
:10482000A9360008253B00089D38000880B485B0F3
:1048300000AF78600B467B800023FB607B8803F031
:104840000103002B0FD0FB6843F04203FB607B6841
:1048500093F84130DBB203F02803282B03D0FB6828
:1048600043F0B003FB607B8803F00203002B0FD002
:10487000FB6843F04403FB607B6893F84130DBB294
:1048800003F02803282B03D0FB6843F0B003FB6040
:10489000B7F90230002B03DAFB6843F0B803FB6082
:1048A0007B88102B03D1FB6843F09003FB607B886F
:1048B000202B03D1FB6843F02003FB607B88402B57
:1048C00003D1FB6843F04003FB607B681B681968F9
:1048D000FB68DA437B681B680A401A6000BF143724
:1048E000BD465DF8047B704780B483B000AF78604C
:1048F00039607B6893F84130DBB2202B38D17B687C
:1049000093F84030012B01D1022332E07B68012271
:1049100083F840207B68242283F841207B681B6851
:104920001A687B681B6822F001021A607B681B68AA
:104930001A687B681B6822F480521A607B681B68C7
:1049400019687B681B683A680A431A607B681B68B1
:104950001A687B681B6842F001021A607B6820229B
:1049600083F841207B68002283F84020002300E088
:10497000022318460C37BD465DF8047B704780B4AF
:1049800085B000AF786039607B6893F84130DBB266
:10499000202B39D17B6893F84030012B01D10223C1
:1049A00033E07B68012283F840207B68242283F86F
:1049B00041207B681B681A687B681B6822F0010233
:1049C0001A607B681B681B68FB60FB6823F47063DC
:1049D000FB603B681B02FA681343FB607B681B6843
:1049E000FA681A607B681B681A687B681B6842F06B
:1049F00001021A607B68202283F841207B68002234
:104A000083F84020002300E0022318461437BD46F7
:104A10005DF8047B7047000080B5ADF5007D00AF08
:104A200007F50073A3F5FE73186007F50073A3F58F
:104A3000FE731B68002B02D1012301F023B807F598
:104A40000073A3F5FE731B681B6803F00103002BC2
:104A500000F07D81BC4B5B6803F00C03042B0CD091
:104A6000B94B5B6803F00C03082B5CD1B64B5B6859
:104A700003F48033B3F5803F55D14FF40033C7F8CA
:104A8000F031D7F8F03193FAA3F3C7F8EC31D7F847
:104A9000EC31B3FA83F3DBB25B09DBB243F0010321
:104AA000DBB2012B02D1A84B1B6815E04FF4003399
:104AB000C7F8E831D7F8E83193FAA3F3C7F8E4313F
:104AC0004FF40033C7F8E031D7F8E03193FAA3F39D
:104AD000C7F8DC319C4B5B6A4FF40032C7F8D82131
:104AE000D7F8D82192FAA2F2C7F8D421D7F8D42166
:104AF000B2FA82F2D2B242F02002D2B202F01F0227
:104B0000012101FA02F21340002B00F01F8107F58A
:104B10000073A3F5FE731B685B68002B40F01681E1
:104B2000012300F0AFBF07F50073A3F5FE731B6808
:104B30005B68B3F5803F06D1834B1B68824A43F420
:104B40008033136036E007F50073A3F5FE731B682E
:104B50005B68002B0CD17C4B1B687B4A23F48033B1
:104B60001360794B1B68784A23F48023136021E09B
:104B700007F50073A3F5FE731B685B68B3F5A02F00
:104B80000CD1714B1B68704A43F4802313606E4B49
:104B90001B686D4A43F4803313600BE06A4B1B685B
:104BA000694A23F480331360674B1B68664A23F419
:104BB00080231360644BDB6A23F00F0207F5007358
:104BC000A3F5FE731B689B685F491343CB6207F52F
:104BD0000073A3F5FE731B685B68002B59D0FCF7CC
:104BE00049FBC7F8F8010AE0FCF744FB0246D7F896
:104BF000F831D31A642B02D9032300F043BF4FF4DA
:104C00000033C7F8D031D7F8D03193FAA3F3C7F8FF
:104C1000CC31D7F8CC31B3FA83F3DBB25B09DBB22A
:104C200043F00103DBB2012B02D1474B1B6815E0B7
:104C30004FF40033C7F8C831D7F8C83193FAA3F35B
:104C4000C7F8C4314FF40033C7F8C031D7F8C031CA
:104C500093FAA3F3C7F8BC313B4B5B6A4FF40032C5
:104C6000C7F8B821D7F8B82192FAA2F2C7F8B42150
:104C7000D7F8B421B2FA82F2D2B242F02002D2B214
:104C800002F01F02012101FA02F21340002BABD007
:104C90005DE0FCF7EFFAC7F8F8010AE0FCF7EAFA82
:104CA0000246D7F8F831D31A642B02D9032300F057
:104CB000E9BE4FF40033C7F8B031D7F8B03193FAFA
:104CC000A3F3C7F8AC31D7F8AC31B3FA83F3DBB256
:104CD0005B09DBB243F00103DBB2012B02D11A4BBB
:104CE0001B6815E04FF40033C7F8A831D7F8A83196
:104CF00093FAA3F3C7F8A4314FF40033C7F8A031F7
:104D0000D7F8A03193FAA3F3C7F89C310E4B5B6A36
:104D10004FF40032C7F89821D7F8982192FAA2F2FE
:104D2000C7F89421D7F89421B2FA82F2D2B242F0B5
:104D30002002D2B202F01F02012101FA02F2134056
:104D4000002BABD103E000BF0010024000BF07F50D
:104D50000073A3F5FE731B681B6803F00203002BAE
:104D600000F07D81A64B5B6803F00C03002B0BD099
:104D7000A34B5B6803F00C03082B72D1A04B5B685C
:104D800003F48033002B6CD10223C7F89031D7F89D
:104D9000903193FAA3F3C7F88C31D7F88C31B3FA7A
:104DA00083F3DBB25B09DBB243F00103DBB2012B1F
:104DB00002D1934B1B6813E00223C7F88831D7F860
:104DC000883193FAA3F3C7F884310223C7F88031FE
:104DD000D7F8803193FAA3F3C7F87C31884B5B6A2C
:104DE0000222C7F87821D7F8782192FAA2F2C7F800
:104DF0007421D7F87421B2FA82F2D2B242F02002C2
:104E0000D2B202F01F02012101FA02F21340002B7C
:104E10000AD007F50073A3F5FE731B681B69012B0D
:104E200002D0012300F02EBE754B1B6823F0F80260
:104E300007F50073A3F5FE731B685B69F821C7F8DB
:104E40007011D7F8701191FAA1F1C7F86C11D7F869
:104E50006C11B1FA81F1C9B28B40694913430B60FF
:104E6000FDE007F50073A3F5FE731B681B69002BBB
:104E700000F088800123C7F86831D7F8683193FAC9
:104E8000A3F3C7F86431D7F86431B3FA83F3DBB224
:104E900003F1845303F584139B001A460123136026
:104EA000FCF7E8F9C7F8F8010AE0FCF7E3F9024675
:104EB000D7F8F831D31A022B02D9032300F0E2BD50
:104EC0000223C7F86031D7F8603193FAA3F3C7F82B
:104ED0005C31D7F85C31B3FA83F3DBB25B09DBB248
:104EE00043F00103DBB2012B02D1454B1B6813E0F9
:104EF0000223C7F85831D7F8583193FAA3F3C7F80B
:104F000054310223C7F85031D7F8503193FAA3F344
:104F1000C7F84C313A4B5B6A0222C7F84821D7F8F0
:104F2000482192FAA2F2C7F84421D7F84421B2FAF4
:104F300082F2D2B242F02002D2B202F01F0201216C
:104F400001FA02F21340002BAFD02D4B1B6823F067
:104F5000F80207F50073A3F5FE731B685B69F8217F
:104F6000C7F84011D7F8401191FAA1F1C7F83C11E8
:104F7000D7F83C11B1FA81F1C9B28B4020491343F3
:104F80000B606CE00123C7F83831D7F8383193FA59
:104F9000A3F3C7F83431D7F83431B3FA83F3DBB273
:104FA00003F1845303F584139B001A460023136016
:104FB000FCF760F9C7F8F8010AE0FCF75BF9024674
:104FC000D7F8F831D31A022B02D9032300F05ABDC7
:104FD0000223C7F83031D7F8303193FAA3F3C7F87A
:104FE0002C31D7F82C31B3FA83F3DBB25B09DBB297
:104FF00043F00103DBB2012B04D1014B1B6815E028
:10500000001002400223C7F82831D7F8283193FA5C
:10501000A3F3C7F824310223C7F82031D7F8203191
:1050200093FAA3F3C7F81C31C84B5B6A0222C7F896
:105030001821D7F8182192FAA2F2C7F81421D7F84C
:105040001421B2FA82F2D2B242F02002D2B202F0BD
:105050001F02012101FA02F21340002BADD107F526
:105060000073A3F5FE731B681B6803F00803002B95
:1050700000F0108107F50073A3F5FE731B689B69B0
:10508000002B79D00123C7F81031D7F8103193FAEB
:10509000A3F3C7F80C31D7F80C31B3FA83F3DBB2C2
:1050A0001A46AB4B13449B001A4601231360FCF7CE
:1050B000E1F8C7F8F8010AE0FCF7DCF80246D7F897
:1050C000F831D31A022B02D9032300F0DBBC0223F0
:1050D000C7F80831D7F8083193FAA3F3C7F80431B9
:1050E00007F50073A3F5807302221A6007F50073B9
:1050F000A3F580731B6893FAA3F207F50073A3F579
:1051000082731A6007F50073A3F5847302221A6094
:1051100007F50073A3F584731B6893FAA3F207F5F0
:105120000073A3F586731A60884B5A6A07F50073FB
:10513000A3F588730221196007F50073A3F588733E
:105140001B6893FAA3F107F50073A3F58A7319603E
:1051500007F50073A3F58A731B68B3FA83F3DBB218
:1051600043F06003DBB203F01F03012101FA03F3F4
:105170001340002BA0D08DE007F50073A3F58C73CE
:1051800001221A6007F50073A3F58C731B6893FA6C
:10519000A3F207F50073A3F58E731A6007F5007389
:1051A000A3F58E731B68B3FA83F3DBB21A46684B20
:1051B00013449B001A4600231360FCF75BF8C7F802
:1051C000F8010AE0FCF756F80246D7F8F831D31A8E
:1051D000022B02D9032300F055BC07F50073A3F599
:1051E000907302221A6007F50073A3F590731B6891
:1051F00093FAA3F207F50073A3F592731A6007F50B
:105200000073A3F5947302221A6007F50073A3F5E7
:1052100094731B6893FAA3F207F50073A3F59673D2
:105220001A6007F50073A3F5987302221A6007F558
:105230000073A3F598731B6893FAA3F207F5007344
:10524000A3F59A731A60414B5A6A07F50073A3F5E8
:105250009C730221196007F50073A3F59C731B680A
:1052600093FAA3F107F50073A3F59E73196007F590
:105270000073A3F59E731B68B3FA83F3DBB243F0AC
:105280006003DBB203F01F03012101FA03F31340B3
:10529000002B97D107F50073A3F5FE731B681B68FD
:1052A00003F00403002B00F0A181002387F8FF31F5
:1052B000264BDB6903F08053002B16D1234BDB69AF
:1052C000224A43F08053D361204BDB6903F08052C4
:1052D00007F50073A3F5FC731A6007F50073A3F5D7
:1052E000FC731B68012387F8FF311A4B1B6803F41A
:1052F0008073002B1AD1174B1B68164A43F4807336
:105300001360FBF7B7FFC7F8F80109E0FBF7B2FF3E
:105310000246D7F8F831D31A642B01D90323B1E33D
:105320000C4B1B6803F48073002BEFD007F5007360
:10533000A3F5FE731B68DB68012B0DD1034B1B6AC1
:10534000024A43F0010313623CE000BF0010024038
:10535000208190100070004007F50073A3F5FE73E4
:105360001B68DB68002B0CD1C14B1B6AC04A23F0C1
:1053700001031362BE4B1B6ABD4A23F00403136290
:1053800020E007F50073A3F5FE731B68DB68052BAF
:105390000CD1B74B1B6AB64A43F004031362B44BFB
:1053A0001B6AB34A43F0010313620BE0B04B1B6A64
:1053B000AF4A23F001031362AD4B1B6AAC4A23F0E2
:1053C0000403136207F50073A3F5FE731B68DB6823
:1053D000002B00F08180FBF74DFFC7F8F8010BE0D0
:1053E000FBF748FF0246D7F8F831D31A41F288326A
:1053F000934201D9032345E307F50073A3F5A07396
:1054000002221A6007F50073A3F5A0731B6893FAD4
:10541000A3F207F50073A3F5A2731A6007F50073F2
:10542000A3F5A47302221A6007F50073A3F5A47311
:105430001B6893FAA3F207F50073A3F5A6731A602D
:1054400007F50073A3F5A6731B68B3FA83F3DBB209
:105450005B09DBB243F00203DBB2022B02D1844BC7
:105460001B6A13E007F50073A3F5A87302221A6004
:1054700007F50073A3F5A8731B6893FAA3F207F569
:105480000073A3F5AA731A60794B5B6A07F5007283
:10549000A2F5AC720221116007F50072A2F5AC72A0
:1054A000126892FAA2F107F50072A2F5AE721160CD
:1054B00007F50072A2F5AE721268B2FA82F2D2B2A9
:1054C00042F04002D2B202F01F02012101FA02F2C0
:1054D0001340002B84D07FE0FBF7CCFEC7F8F80127
:1054E0000BE0FBF7C7FE0246D7F8F831D31A41F2BA
:1054F0008832934201D90323C4E207F50073A3F570
:10550000B07302221A6007F50073A3F5B0731B682D
:1055100093FAA3F207F50073A3F5B2731A6007F5C7
:105520000073A3F5B47302221A6007F50073A3F5A4
:10553000B4731B6893FAA3F207F50073A3F5B6736F
:105540001A6007F50073A3F5B6731B68B3FA83F30B
:10555000DBB25B09DBB243F00203DBB2022B02D108
:10556000434B1B6A13E007F50073A3F5B8730222DF
:105570001A6007F50073A3F5B8731B6893FAA3F2DA
:1055800007F50073A3F5BA731A60394B5B6A07F528
:105590000072A2F5BC720221116007F50072A2F53B
:1055A000BC72126892FAA2F107F50072A2F5BE72FF
:1055B000116007F50072A2F5BE721268B2FA82F2AB
:1055C000D2B242F04002D2B202F01F02012101FA2F
:1055D00002F21340002B84D197F8FF31012B05D143
:1055E000234BDB69224A23F08053D36107F5007314
:1055F000A3F5FE731B68DB69002B00F042821C4B95
:105600005B6803F00C03082B00F0138207F50073AE
:10561000A3F5FE731B68DB69022B40F0628107F57E
:105620000073A3F5C0734FF080721A6007F5007322
:10563000A3F5C0731B6893FAA3F207F50073A3F5F3
:10564000C2731A6007F50073A3F5C2731B68B3FA3F
:1056500083F3DBB203F1845303F584139B001A46F2
:1056600000231360FBF706FEC7F8F8010CE000BF4B
:1056700000100240FBF7FEFD0246D7F8F831D31ABE
:10568000022B01D90323FDE107F50073A3F5C473D1
:105690004FF000721A6007F50073A3F5C4731B681E
:1056A00093FAA3F207F50073A3F5C6731A6007F522
:1056B0000073A3F5C6731B68B3FA83F3DBB25B090F
:1056C000DBB243F00103DBB2012B02D1B04B1B680C
:1056D00027E007F50073A3F5C8734FF000721A6056
:1056E00007F50073A3F5C8731B6893FAA3F207F5D7
:1056F0000073A3F5CA731A6007F50073A3F5CC73A2
:105700004FF000721A6007F50073A3F5CC731B68A5
:1057100093FAA3F207F50073A3F5CE731A609C4BBE
:105720005B6A07F50072A2F5D0724FF0007111604C
:1057300007F50072A2F5D072126892FAA2F107F58D
:105740000072A2F5D272116007F50072A2F5D27252
:105750001268B2FA82F2D2B242F02002D2B202F061
:105760001F02012101FA02F21340002B82D1884B63
:105770005B6823F4741207F50073A3F5FE731B68CE
:10578000596A07F50073A3F5FE731B681B6A0B4388
:105790007F4913434B6007F50073A3F5D4734FF0B3
:1057A00080721A6007F50073A3F5D4731B6893FA2F
:1057B000A3F207F50073A3F5D6731A6007F500731B
:1057C000A3F5D6731B68B3FA83F3DBB203F18453FA
:1057D00003F584139B001A4601231360FBF74AFD6F
:1057E000C7F8F80109E0FBF745FD0246D7F8F831A4
:1057F000D31A022B01D9032344E107F50073A3F563
:10580000D8734FF000721A6007F50073A3F5D873D0
:105810001B6893FAA3F207F50073A3F5DA731A6015
:1058200007F50073A3F5DA731B68B3FA83F3DBB2F1
:105830005B09DBB243F00103DBB2012B02D1544B15
:105840001B6827E007F50073A3F5DC734FF00072C7
:105850001A6007F50073A3F5DC731B6893FAA3F2D3
:1058600007F50073A3F5DE731A6007F50073A3F55F
:10587000E0734FF000721A6007F50073A3F5E07350
:105880001B6893FAA3F207F50073A3F5E2731A609D
:105890003F4B5B6A07F50072A2F5E4724FF00071AE
:1058A000116007F50072A2F5E472126892FAA2F193
:1058B00007F50072A2F5E672116007F50072A2F515
:1058C000E6721268B2FA82F2D2B242F02002D2B28A
:1058D00002F01F02012101FA02F21340002B82D0D4
:1058E000CFE007F50073A3F5E8734FF080721A60FC
:1058F00007F50073A3F5E8731B6893FAA3F207F5A5
:105900000073A3F5EA731A6007F50073A3F5EA7351
:105910001B68B3FA83F3DBB203F1845303F58413FA
:105920009B001A4600231360FBF7A4FCC7F8F8019C
:1059300009E0FBF79FFC0246D7F8F831D31A022B97
:1059400001D903239EE007F50073A3F5EC734FF034
:1059500000721A6007F50073A3F5EC731B6893FAE5
:10596000A3F207F50073A3F5EE731A6007F5007351
:10597000A3F5EE731B68B3FA83F3DBB25B09DBB20A
:1059800043F00103DBB2012B04D1014B1B6829E07A
:105990000010024007F50073A3F5F0734FF000729A
:1059A0001A6007F50073A3F5F0731B6893FAA3F26E
:1059B00007F50073A3F5F2731A6007F50073A3F5FA
:1059C000F4734FF000721A6007F50073A3F5F473D7
:1059D0001B6893FAA3F207F50073A3F5F6731A6038
:1059E0002B4B5B6A07F50072A2F5F8724FF000715D
:1059F000116007F50072A2F5F872126892FAA2F12E
:105A000007F50072A2F5FA72116007F50072A2F5AF
:105A1000FA721268B2FA82F2D2B242F02002D2B224
:105A200002F01F02012101FA02F21340002B80D183
:105A300027E007F50073A3F5FE731B68DB69012BF4
:105A400001D101231EE0124B5B68C7F8F431D7F88F
:105A5000F43103F4803207F50073A3F5FE731B687D
:105A60001B6A9A420BD1D7F8F43103F4701207F590
:105A70000073A3F5FE731B685B6A9A4201D0012391
:105A800000E00023184607F50077BD4680BD00BF43
:105A90000010024080B59EB000AF786039600023EE
:105AA0007B677B68002B01D1012362E1904B1B686F
:105AB00003F007033A689A4210D98D4B1B6823F014
:105AC00007028B493B6813430B60894B1B6803F04B
:105AD00007033A689A4201D001234AE17B681B68B8
